{
	"Mybook.sol": {
		"Book": {
			"abi": [
				{
					"inputs": [],
					"name": "buybook",
					"outputs": [],
					"stateMutability": "payable",
					"type": "function"
				},
				{
					"inputs": [
						{
							"internalType": "uint256",
							"name": "eval",
							"type": "uint256"
						}
					],
					"name": "ethTowei",
					"outputs": [
						{
							"internalType": "uint256",
							"name": "",
							"type": "uint256"
						}
					],
					"stateMutability": "pure",
					"type": "function"
				},
				{
					"inputs": [],
					"name": "getbookdetails",
					"outputs": [
						{
							"internalType": "string",
							"name": "",
							"type": "string"
						},
						{
							"internalType": "uint16",
							"name": "",
							"type": "uint16"
						}
					],
					"stateMutability": "view",
					"type": "function"
				},
				{
					"inputs": [],
					"name": "owner",
					"outputs": [
						{
							"internalType": "address",
							"name": "",
							"type": "address"
						}
					],
					"stateMutability": "view",
					"type": "function"
				},
				{
					"inputs": [],
					"name": "price",
					"outputs": [
						{
							"internalType": "uint16",
							"name": "",
							"type": "uint16"
						}
					],
					"stateMutability": "view",
					"type": "function"
				},
				{
					"inputs": [
						{
							"internalType": "string",
							"name": "_title",
							"type": "string"
						},
						{
							"internalType": "uint16",
							"name": "_price",
							"type": "uint16"
						}
					],
					"name": "setbookdetails",
					"outputs": [],
					"stateMutability": "nonpayable",
					"type": "function"
				},
				{
					"inputs": [],
					"name": "sold",
					"outputs": [
						{
							"internalType": "bool",
							"name": "",
							"type": "bool"
						}
					],
					"stateMutability": "view",
					"type": "function"
				},
				{
					"inputs": [],
					"name": "title",
					"outputs": [
						{
							"internalType": "string",
							"name": "",
							"type": "string"
						}
					],
					"stateMutability": "view",
					"type": "function"
				}
			],
			"devdoc": {
				"kind": "dev",
				"methods": {},
				"version": 1
			},
			"evm": {
				"assembly": "    /* \"Mybook.sol\":56:860  contract Book{... */\n  mstore(0x40, 0x80)\n  callvalue\n  dup1\n  iszero\n  tag_1\n  jumpi\n  0x00\n  dup1\n  revert\ntag_1:\n  pop\n  dataSize(sub_0)\n  dup1\n  dataOffset(sub_0)\n  0x00\n  codecopy\n  0x00\n  return\nstop\n\nsub_0: assembly {\n        /* \"Mybook.sol\":56:860  contract Book{... */\n      mstore(0x40, 0x80)\n      jumpi(tag_1, lt(calldatasize, 0x04))\n      shr(0xe0, calldataload(0x00))\n      dup1\n      0x8da5cb5b\n      gt\n      tag_10\n      jumpi\n      dup1\n      0x8da5cb5b\n      eq\n      tag_6\n      jumpi\n      dup1\n      0xa035b1fe\n      eq\n      tag_7\n      jumpi\n      dup1\n      0xa7cdc837\n      eq\n      tag_8\n      jumpi\n      dup1\n      0xd1f3bf1d\n      eq\n      tag_9\n      jumpi\n      jump(tag_1)\n    tag_10:\n      dup1\n      0x02c7e7af\n      eq\n      tag_2\n      jumpi\n      dup1\n      0x4a79d50c\n      eq\n      tag_3\n      jumpi\n      dup1\n      0x71924969\n      eq\n      tag_4\n      jumpi\n      dup1\n      0x895afc19\n      eq\n      tag_5\n      jumpi\n    tag_1:\n      0x00\n      dup1\n      revert\n        /* \"Mybook.sol\":151:167  bool public sold */\n    tag_2:\n      callvalue\n      dup1\n      iszero\n      tag_11\n      jumpi\n      0x00\n      dup1\n      revert\n    tag_11:\n      pop\n      tag_12\n      tag_13\n      jump\t// in\n    tag_12:\n      mload(0x40)\n      tag_14\n      swap2\n      swap1\n      tag_15\n      jump\t// in\n    tag_14:\n      mload(0x40)\n      dup1\n      swap2\n      sub\n      swap1\n      return\n        /* \"Mybook.sol\":75:94  string public title */\n    tag_3:\n      callvalue\n      dup1\n      iszero\n      tag_16\n      jumpi\n      0x00\n      dup1\n      revert\n    tag_16:\n      pop\n      tag_17\n      tag_18\n      jump\t// in\n    tag_17:\n      mload(0x40)\n      tag_19\n      swap2\n      swap1\n      tag_20\n      jump\t// in\n    tag_19:\n      mload(0x40)\n      dup1\n      swap2\n      sub\n      swap1\n      return\n        /* \"Mybook.sol\":568:858  function buybook () public payable {... */\n    tag_4:\n      tag_21\n      tag_22\n      jump\t// in\n    tag_21:\n      stop\n        /* \"Mybook.sol\":175:280  function getbookdetails() public view returns (string memory,uint16){... */\n    tag_5:\n      callvalue\n      dup1\n      iszero\n      tag_23\n      jumpi\n      0x00\n      dup1\n      revert\n    tag_23:\n      pop\n      tag_24\n      tag_25\n      jump\t// in\n    tag_24:\n      mload(0x40)\n      tag_26\n      swap3\n      swap2\n      swap1\n      tag_27\n      jump\t// in\n    tag_26:\n      mload(0x40)\n      dup1\n      swap2\n      sub\n      swap1\n      return\n        /* \"Mybook.sol\":125:145  address public owner */\n    tag_6:\n      callvalue\n      dup1\n      iszero\n      tag_28\n      jumpi\n      0x00\n      dup1\n      revert\n    tag_28:\n      pop\n      tag_29\n      tag_30\n      jump\t// in\n    tag_29:\n      mload(0x40)\n      tag_31\n      swap2\n      swap1\n      tag_32\n      jump\t// in\n    tag_31:\n      mload(0x40)\n      dup1\n      swap2\n      sub\n      swap1\n      return\n        /* \"Mybook.sol\":100:119  uint16 public price */\n    tag_7:\n      callvalue\n      dup1\n      iszero\n      tag_33\n      jumpi\n      0x00\n      dup1\n      revert\n    tag_33:\n      pop\n      tag_34\n      tag_35\n      jump\t// in\n    tag_34:\n      mload(0x40)\n      tag_36\n      swap2\n      swap1\n      tag_37\n      jump\t// in\n    tag_36:\n      mload(0x40)\n      dup1\n      swap2\n      sub\n      swap1\n      return\n        /* \"Mybook.sol\":286:454  function setbookdetails(string memory _title, uint16 _price) public {... */\n    tag_8:\n      callvalue\n      dup1\n      iszero\n      tag_38\n      jumpi\n      0x00\n      dup1\n      revert\n    tag_38:\n      pop\n      tag_39\n      0x04\n      dup1\n      calldatasize\n      sub\n      dup2\n      add\n      swap1\n      tag_40\n      swap2\n      swap1\n      tag_41\n      jump\t// in\n    tag_40:\n      tag_42\n      jump\t// in\n    tag_39:\n      stop\n        /* \"Mybook.sol\":459:563  function ethTowei(uint eval) public pure returns(uint){... */\n    tag_9:\n      callvalue\n      dup1\n      iszero\n      tag_43\n      jumpi\n      0x00\n      dup1\n      revert\n    tag_43:\n      pop\n      tag_44\n      0x04\n      dup1\n      calldatasize\n      sub\n      dup2\n      add\n      swap1\n      tag_45\n      swap2\n      swap1\n      tag_46\n      jump\t// in\n    tag_45:\n      tag_47\n      jump\t// in\n    tag_44:\n      mload(0x40)\n      tag_48\n      swap2\n      swap1\n      tag_49\n      jump\t// in\n    tag_48:\n      mload(0x40)\n      dup1\n      swap2\n      sub\n      swap1\n      return\n        /* \"Mybook.sol\":151:167  bool public sold */\n    tag_13:\n      0x01\n      0x16\n      swap1\n      sload\n      swap1\n      0x0100\n      exp\n      swap1\n      div\n      0xff\n      and\n      dup2\n      jump\t// out\n        /* \"Mybook.sol\":75:94  string public title */\n    tag_18:\n      0x00\n      dup1\n      sload\n      tag_50\n      swap1\n      tag_51\n      jump\t// in\n    tag_50:\n      dup1\n      0x1f\n      add\n      0x20\n      dup1\n      swap2\n      div\n      mul\n      0x20\n      add\n      mload(0x40)\n      swap1\n      dup2\n      add\n      0x40\n      mstore\n      dup1\n      swap3\n      swap2\n      swap1\n      dup2\n      dup2\n      mstore\n      0x20\n      add\n      dup3\n      dup1\n      sload\n      tag_52\n      swap1\n      tag_51\n      jump\t// in\n    tag_52:\n      dup1\n      iszero\n      tag_53\n      jumpi\n      dup1\n      0x1f\n      lt\n      tag_54\n      jumpi\n      0x0100\n      dup1\n      dup4\n      sload\n      div\n      mul\n      dup4\n      mstore\n      swap2\n      0x20\n      add\n      swap2\n      jump(tag_53)\n    tag_54:\n      dup3\n      add\n      swap2\n      swap1\n      0x00\n      mstore\n      keccak256(0x00, 0x20)\n      swap1\n    tag_55:\n      dup2\n      sload\n      dup2\n      mstore\n      swap1\n      0x01\n      add\n      swap1\n      0x20\n      add\n      dup1\n      dup4\n      gt\n      tag_55\n      jumpi\n      dup3\n      swap1\n      sub\n      0x1f\n      and\n      dup3\n      add\n      swap2\n    tag_53:\n      pop\n      pop\n      pop\n      pop\n      pop\n      dup2\n      jump\t// out\n        /* \"Mybook.sol\":568:858  function buybook () public payable {... */\n    tag_22:\n        /* \"Mybook.sol\":629:644  ethTowei(price) */\n      tag_57\n        /* \"Mybook.sol\":638:643  price */\n      0x01\n      0x00\n      swap1\n      sload\n      swap1\n      0x0100\n      exp\n      swap1\n      div\n      0xffff\n      and\n        /* \"Mybook.sol\":629:644  ethTowei(price) */\n      0xffff\n      and\n        /* \"Mybook.sol\":629:637  ethTowei */\n      tag_47\n        /* \"Mybook.sol\":629:644  ethTowei(price) */\n      jump\t// in\n    tag_57:\n        /* \"Mybook.sol\":616:625  msg.value */\n      callvalue\n        /* \"Mybook.sol\":616:644  msg.value >= ethTowei(price) */\n      lt\n        /* \"Mybook.sol\":613:852  if(msg.value >= ethTowei(price)){... */\n      tag_58\n      jumpi\n        /* \"Mybook.sol\":659:667  uint bal */\n      0x00\n        /* \"Mybook.sol\":678:693  ethTowei(price) */\n      tag_59\n        /* \"Mybook.sol\":687:692  price */\n      0x01\n      0x00\n      swap1\n      sload\n      swap1\n      0x0100\n      exp\n      swap1\n      div\n      0xffff\n      and\n        /* \"Mybook.sol\":678:693  ethTowei(price) */\n      0xffff\n      and\n        /* \"Mybook.sol\":678:686  ethTowei */\n      tag_47\n        /* \"Mybook.sol\":678:693  ethTowei(price) */\n      jump\t// in\n    tag_59:\n        /* \"Mybook.sol\":668:677  msg.value */\n      callvalue\n        /* \"Mybook.sol\":668:693  msg.value-ethTowei(price) */\n      tag_60\n      swap2\n      swap1\n      tag_61\n      jump\t// in\n    tag_60:\n        /* \"Mybook.sol\":659:693  uint bal=msg.value-ethTowei(price) */\n      swap1\n      pop\n        /* \"Mybook.sol\":714:715  0 */\n      0x00\n        /* \"Mybook.sol\":710:713  bal */\n      dup2\n        /* \"Mybook.sol\":710:715  bal>0 */\n      gt\n        /* \"Mybook.sol\":707:783  if(bal>0){... */\n      iszero\n      tag_62\n      jumpi\n        /* \"Mybook.sol\":743:753  msg.sender */\n      caller\n        /* \"Mybook.sol\":734:763  payable (msg.sender).transfer */\n      0xffffffffffffffffffffffffffffffffffffffff\n      and\n        /* \"Mybook.sol\":734:768  payable (msg.sender).transfer(bal) */\n      0x08fc\n        /* \"Mybook.sol\":764:767  bal */\n      dup3\n        /* \"Mybook.sol\":734:768  payable (msg.sender).transfer(bal) */\n      swap1\n      dup2\n      iszero\n      mul\n      swap1\n      mload(0x40)\n      0x00\n      mload(0x40)\n      dup1\n      dup4\n      sub\n      dup2\n      dup6\n      dup9\n      dup9\n      call\n      swap4\n      pop\n      pop\n      pop\n      pop\n      iszero\n      dup1\n      iszero\n      tag_64\n      jumpi\n      returndatasize\n      0x00\n      dup1\n      returndatacopy\n      revert(0x00, returndatasize)\n    tag_64:\n      pop\n        /* \"Mybook.sol\":707:783  if(bal>0){... */\n    tag_62:\n        /* \"Mybook.sol\":803:813  msg.sender */\n      caller\n        /* \"Mybook.sol\":797:802  owner */\n      0x01\n      0x02\n        /* \"Mybook.sol\":797:813  owner=msg.sender */\n      0x0100\n      exp\n      dup2\n      sload\n      dup2\n      0xffffffffffffffffffffffffffffffffffffffff\n      mul\n      not\n      and\n      swap1\n      dup4\n      0xffffffffffffffffffffffffffffffffffffffff\n      and\n      mul\n      or\n      swap1\n      sstore\n      pop\n        /* \"Mybook.sol\":836:840  true */\n      0x01\n        /* \"Mybook.sol\":831:835  sold */\n      dup1\n      0x16\n        /* \"Mybook.sol\":831:840  sold=true */\n      0x0100\n      exp\n      dup2\n      sload\n      dup2\n      0xff\n      mul\n      not\n      and\n      swap1\n      dup4\n      iszero\n      iszero\n      mul\n      or\n      swap1\n      sstore\n      pop\n        /* \"Mybook.sol\":645:852  {... */\n      pop\n        /* \"Mybook.sol\":613:852  if(msg.value >= ethTowei(price)){... */\n    tag_58:\n        /* \"Mybook.sol\":568:858  function buybook () public payable {... */\n      jump\t// out\n        /* \"Mybook.sol\":175:280  function getbookdetails() public view returns (string memory,uint16){... */\n    tag_25:\n        /* \"Mybook.sol\":222:235  string memory */\n      0x60\n        /* \"Mybook.sol\":236:242  uint16 */\n      0x00\n        /* \"Mybook.sol\":261:266  title */\n      dup1\n        /* \"Mybook.sol\":267:272  price */\n      0x01\n      0x00\n      swap1\n      sload\n      swap1\n      0x0100\n      exp\n      swap1\n      div\n      0xffff\n      and\n        /* \"Mybook.sol\":253:273  return (title,price) */\n      dup2\n      dup1\n      sload\n      tag_66\n      swap1\n      tag_51\n      jump\t// in\n    tag_66:\n      dup1\n      0x1f\n      add\n      0x20\n      dup1\n      swap2\n      div\n      mul\n      0x20\n      add\n      mload(0x40)\n      swap1\n      dup2\n      add\n      0x40\n      mstore\n      dup1\n      swap3\n      swap2\n      swap1\n      dup2\n      dup2\n      mstore\n      0x20\n      add\n      dup3\n      dup1\n      sload\n      tag_67\n      swap1\n      tag_51\n      jump\t// in\n    tag_67:\n      dup1\n      iszero\n      tag_68\n      jumpi\n      dup1\n      0x1f\n      lt\n      tag_69\n      jumpi\n      0x0100\n      dup1\n      dup4\n      sload\n      div\n      mul\n      dup4\n      mstore\n      swap2\n      0x20\n      add\n      swap2\n      jump(tag_68)\n    tag_69:\n      dup3\n      add\n      swap2\n      swap1\n      0x00\n      mstore\n      keccak256(0x00, 0x20)\n      swap1\n    tag_70:\n      dup2\n      sload\n      dup2\n      mstore\n      swap1\n      0x01\n      add\n      swap1\n      0x20\n      add\n      dup1\n      dup4\n      gt\n      tag_70\n      jumpi\n      dup3\n      swap1\n      sub\n      0x1f\n      and\n      dup3\n      add\n      swap2\n    tag_68:\n      pop\n      pop\n      pop\n      pop\n      pop\n      swap2\n      pop\n      swap2\n      pop\n      swap2\n      pop\n        /* \"Mybook.sol\":175:280  function getbookdetails() public view returns (string memory,uint16){... */\n      swap1\n      swap2\n      jump\t// out\n        /* \"Mybook.sol\":125:145  address public owner */\n    tag_30:\n      0x01\n      0x02\n      swap1\n      sload\n      swap1\n      0x0100\n      exp\n      swap1\n      div\n      0xffffffffffffffffffffffffffffffffffffffff\n      and\n      dup2\n      jump\t// out\n        /* \"Mybook.sol\":100:119  uint16 public price */\n    tag_35:\n      0x01\n      0x00\n      swap1\n      sload\n      swap1\n      0x0100\n      exp\n      swap1\n      div\n      0xffff\n      and\n      dup2\n      jump\t// out\n        /* \"Mybook.sol\":286:454  function setbookdetails(string memory _title, uint16 _price) public {... */\n    tag_42:\n        /* \"Mybook.sol\":371:377  _title */\n      dup2\n        /* \"Mybook.sol\":364:369  title */\n      0x00\n        /* \"Mybook.sol\":364:377  title= _title */\n      swap1\n      dup2\n      tag_72\n      swap2\n      swap1\n      tag_73\n      jump\t// in\n    tag_72:\n      pop\n        /* \"Mybook.sol\":394:400  _price */\n      dup1\n        /* \"Mybook.sol\":387:392  price */\n      0x01\n      0x00\n        /* \"Mybook.sol\":387:400  price= _price */\n      0x0100\n      exp\n      dup2\n      sload\n      dup2\n      0xffff\n      mul\n      not\n      and\n      swap1\n      dup4\n      0xffff\n      and\n      mul\n      or\n      swap1\n      sstore\n      pop\n        /* \"Mybook.sol\":416:426  msg.sender */\n      caller\n        /* \"Mybook.sol\":410:415  owner */\n      0x01\n      0x02\n        /* \"Mybook.sol\":410:426  owner=msg.sender */\n      0x0100\n      exp\n      dup2\n      sload\n      dup2\n      0xffffffffffffffffffffffffffffffffffffffff\n      mul\n      not\n      and\n      swap1\n      dup4\n      0xffffffffffffffffffffffffffffffffffffffff\n      and\n      mul\n      or\n      swap1\n      sstore\n      pop\n        /* \"Mybook.sol\":441:446  false */\n      0x00\n        /* \"Mybook.sol\":436:440  sold */\n      0x01\n      0x16\n        /* \"Mybook.sol\":436:446  sold=false */\n      0x0100\n      exp\n      dup2\n      sload\n      dup2\n      0xff\n      mul\n      not\n      and\n      swap1\n      dup4\n      iszero\n      iszero\n      mul\n      or\n      swap1\n      sstore\n      pop\n        /* \"Mybook.sol\":286:454  function setbookdetails(string memory _title, uint16 _price) public {... */\n      pop\n      pop\n      jump\t// out\n        /* \"Mybook.sol\":459:563  function ethTowei(uint eval) public pure returns(uint){... */\n    tag_47:\n        /* \"Mybook.sol\":508:512  uint */\n      0x00\n        /* \"Mybook.sol\":536:555  1000000000000000000 */\n      0x0de0b6b3a7640000\n        /* \"Mybook.sol\":531:535  eval */\n      dup3\n        /* \"Mybook.sol\":531:555  eval*1000000000000000000 */\n      tag_75\n      swap2\n      swap1\n      tag_76\n      jump\t// in\n    tag_75:\n        /* \"Mybook.sol\":523:556  return (eval*1000000000000000000) */\n      swap1\n      pop\n        /* \"Mybook.sol\":459:563  function ethTowei(uint eval) public pure returns(uint){... */\n      swap2\n      swap1\n      pop\n      jump\t// out\n        /* \"#utility.yul\":7:97   */\n    tag_77:\n        /* \"#utility.yul\":41:48   */\n      0x00\n        /* \"#utility.yul\":84:89   */\n      dup2\n        /* \"#utility.yul\":77:90   */\n      iszero\n        /* \"#utility.yul\":70:91   */\n      iszero\n        /* \"#utility.yul\":59:91   */\n      swap1\n      pop\n        /* \"#utility.yul\":7:97   */\n      swap2\n      swap1\n      pop\n      jump\t// out\n        /* \"#utility.yul\":103:212   */\n    tag_78:\n        /* \"#utility.yul\":184:205   */\n      tag_127\n        /* \"#utility.yul\":199:204   */\n      dup2\n        /* \"#utility.yul\":184:205   */\n      tag_77\n      jump\t// in\n    tag_127:\n        /* \"#utility.yul\":179:182   */\n      dup3\n        /* \"#utility.yul\":172:206   */\n      mstore\n        /* \"#utility.yul\":103:212   */\n      pop\n      pop\n      jump\t// out\n        /* \"#utility.yul\":218:428   */\n    tag_15:\n        /* \"#utility.yul\":305:309   */\n      0x00\n        /* \"#utility.yul\":343:345   */\n      0x20\n        /* \"#utility.yul\":332:341   */\n      dup3\n        /* \"#utility.yul\":328:346   */\n      add\n        /* \"#utility.yul\":320:346   */\n      swap1\n      pop\n        /* \"#utility.yul\":356:421   */\n      tag_129\n        /* \"#utility.yul\":418:419   */\n      0x00\n        /* \"#utility.yul\":407:416   */\n      dup4\n        /* \"#utility.yul\":403:420   */\n      add\n        /* \"#utility.yul\":394:400   */\n      dup5\n        /* \"#utility.yul\":356:421   */\n      tag_78\n      jump\t// in\n    tag_129:\n        /* \"#utility.yul\":218:428   */\n      swap3\n      swap2\n      pop\n      pop\n      jump\t// out\n        /* \"#utility.yul\":434:533   */\n    tag_79:\n        /* \"#utility.yul\":486:492   */\n      0x00\n        /* \"#utility.yul\":520:525   */\n      dup2\n        /* \"#utility.yul\":514:526   */\n      mload\n        /* \"#utility.yul\":504:526   */\n      swap1\n      pop\n        /* \"#utility.yul\":434:533   */\n      swap2\n      swap1\n      pop\n      jump\t// out\n        /* \"#utility.yul\":539:708   */\n    tag_80:\n        /* \"#utility.yul\":623:634   */\n      0x00\n        /* \"#utility.yul\":657:663   */\n      dup3\n        /* \"#utility.yul\":652:655   */\n      dup3\n        /* \"#utility.yul\":645:664   */\n      mstore\n        /* \"#utility.yul\":697:701   */\n      0x20\n        /* \"#utility.yul\":692:695   */\n      dup3\n        /* \"#utility.yul\":688:702   */\n      add\n        /* \"#utility.yul\":673:702   */\n      swap1\n      pop\n        /* \"#utility.yul\":539:708   */\n      swap3\n      swap2\n      pop\n      pop\n      jump\t// out\n        /* \"#utility.yul\":714:853   */\n    tag_81:\n        /* \"#utility.yul\":803:809   */\n      dup3\n        /* \"#utility.yul\":798:801   */\n      dup2\n        /* \"#utility.yul\":793:796   */\n      dup4\n        /* \"#utility.yul\":787:810   */\n      mcopy\n        /* \"#utility.yul\":844:845   */\n      0x00\n        /* \"#utility.yul\":835:841   */\n      dup4\n        /* \"#utility.yul\":830:833   */\n      dup4\n        /* \"#utility.yul\":826:842   */\n      add\n        /* \"#utility.yul\":819:846   */\n      mstore\n        /* \"#utility.yul\":714:853   */\n      pop\n      pop\n      pop\n      jump\t// out\n        /* \"#utility.yul\":859:961   */\n    tag_82:\n        /* \"#utility.yul\":900:906   */\n      0x00\n        /* \"#utility.yul\":951:953   */\n      0x1f\n        /* \"#utility.yul\":947:954   */\n      not\n        /* \"#utility.yul\":942:944   */\n      0x1f\n        /* \"#utility.yul\":935:940   */\n      dup4\n        /* \"#utility.yul\":931:945   */\n      add\n        /* \"#utility.yul\":927:955   */\n      and\n        /* \"#utility.yul\":917:955   */\n      swap1\n      pop\n        /* \"#utility.yul\":859:961   */\n      swap2\n      swap1\n      pop\n      jump\t// out\n        /* \"#utility.yul\":967:1344   */\n    tag_83:\n        /* \"#utility.yul\":1055:1058   */\n      0x00\n        /* \"#utility.yul\":1083:1122   */\n      tag_135\n        /* \"#utility.yul\":1116:1121   */\n      dup3\n        /* \"#utility.yul\":1083:1122   */\n      tag_79\n      jump\t// in\n    tag_135:\n        /* \"#utility.yul\":1138:1209   */\n      tag_136\n        /* \"#utility.yul\":1202:1208   */\n      dup2\n        /* \"#utility.yul\":1197:1200   */\n      dup6\n        /* \"#utility.yul\":1138:1209   */\n      tag_80\n      jump\t// in\n    tag_136:\n        /* \"#utility.yul\":1131:1209   */\n      swap4\n      pop\n        /* \"#utility.yul\":1218:1283   */\n      tag_137\n        /* \"#utility.yul\":1276:1282   */\n      dup2\n        /* \"#utility.yul\":1271:1274   */\n      dup6\n        /* \"#utility.yul\":1264:1268   */\n      0x20\n        /* \"#utility.yul\":1257:1262   */\n      dup7\n        /* \"#utility.yul\":1253:1269   */\n      add\n        /* \"#utility.yul\":1218:1283   */\n      tag_81\n      jump\t// in\n    tag_137:\n        /* \"#utility.yul\":1308:1337   */\n      tag_138\n        /* \"#utility.yul\":1330:1336   */\n      dup2\n        /* \"#utility.yul\":1308:1337   */\n      tag_82\n      jump\t// in\n    tag_138:\n        /* \"#utility.yul\":1303:1306   */\n      dup5\n        /* \"#utility.yul\":1299:1338   */\n      add\n        /* \"#utility.yul\":1292:1338   */\n      swap2\n      pop\n        /* \"#utility.yul\":1059:1344   */\n      pop\n        /* \"#utility.yul\":967:1344   */\n      swap3\n      swap2\n      pop\n      pop\n      jump\t// out\n        /* \"#utility.yul\":1350:1663   */\n    tag_20:\n        /* \"#utility.yul\":1463:1467   */\n      0x00\n        /* \"#utility.yul\":1501:1503   */\n      0x20\n        /* \"#utility.yul\":1490:1499   */\n      dup3\n        /* \"#utility.yul\":1486:1504   */\n      add\n        /* \"#utility.yul\":1478:1504   */\n      swap1\n      pop\n        /* \"#utility.yul\":1550:1559   */\n      dup2\n        /* \"#utility.yul\":1544:1548   */\n      dup2\n        /* \"#utility.yul\":1540:1560   */\n      sub\n        /* \"#utility.yul\":1536:1537   */\n      0x00\n        /* \"#utility.yul\":1525:1534   */\n      dup4\n        /* \"#utility.yul\":1521:1538   */\n      add\n        /* \"#utility.yul\":1514:1561   */\n      mstore\n        /* \"#utility.yul\":1578:1656   */\n      tag_140\n        /* \"#utility.yul\":1651:1655   */\n      dup2\n        /* \"#utility.yul\":1642:1648   */\n      dup5\n        /* \"#utility.yul\":1578:1656   */\n      tag_83\n      jump\t// in\n    tag_140:\n        /* \"#utility.yul\":1570:1656   */\n      swap1\n      pop\n        /* \"#utility.yul\":1350:1663   */\n      swap3\n      swap2\n      pop\n      pop\n      jump\t// out\n        /* \"#utility.yul\":1669:1758   */\n    tag_84:\n        /* \"#utility.yul\":1705:1712   */\n      0x00\n        /* \"#utility.yul\":1745:1751   */\n      0xffff\n        /* \"#utility.yul\":1738:1743   */\n      dup3\n        /* \"#utility.yul\":1734:1752   */\n      and\n        /* \"#utility.yul\":1723:1752   */\n      swap1\n      pop\n        /* \"#utility.yul\":1669:1758   */\n      swap2\n      swap1\n      pop\n      jump\t// out\n        /* \"#utility.yul\":1764:1879   */\n    tag_85:\n        /* \"#utility.yul\":1849:1872   */\n      tag_143\n        /* \"#utility.yul\":1866:1871   */\n      dup2\n        /* \"#utility.yul\":1849:1872   */\n      tag_84\n      jump\t// in\n    tag_143:\n        /* \"#utility.yul\":1844:1847   */\n      dup3\n        /* \"#utility.yul\":1837:1873   */\n      mstore\n        /* \"#utility.yul\":1764:1879   */\n      pop\n      pop\n      jump\t// out\n        /* \"#utility.yul\":1885:2304   */\n    tag_27:\n        /* \"#utility.yul\":2024:2028   */\n      0x00\n        /* \"#utility.yul\":2062:2064   */\n      0x40\n        /* \"#utility.yul\":2051:2060   */\n      dup3\n        /* \"#utility.yul\":2047:2065   */\n      add\n        /* \"#utility.yul\":2039:2065   */\n      swap1\n      pop\n        /* \"#utility.yul\":2111:2120   */\n      dup2\n        /* \"#utility.yul\":2105:2109   */\n      dup2\n        /* \"#utility.yul\":2101:2121   */\n      sub\n        /* \"#utility.yul\":2097:2098   */\n      0x00\n        /* \"#utility.yul\":2086:2095   */\n      dup4\n        /* \"#utility.yul\":2082:2099   */\n      add\n        /* \"#utility.yul\":2075:2122   */\n      mstore\n        /* \"#utility.yul\":2139:2217   */\n      tag_145\n        /* \"#utility.yul\":2212:2216   */\n      dup2\n        /* \"#utility.yul\":2203:2209   */\n      dup6\n        /* \"#utility.yul\":2139:2217   */\n      tag_83\n      jump\t// in\n    tag_145:\n        /* \"#utility.yul\":2131:2217   */\n      swap1\n      pop\n        /* \"#utility.yul\":2227:2297   */\n      tag_146\n        /* \"#utility.yul\":2293:2295   */\n      0x20\n        /* \"#utility.yul\":2282:2291   */\n      dup4\n        /* \"#utility.yul\":2278:2296   */\n      add\n        /* \"#utility.yul\":2269:2275   */\n      dup5\n        /* \"#utility.yul\":2227:2297   */\n      tag_85\n      jump\t// in\n    tag_146:\n        /* \"#utility.yul\":1885:2304   */\n      swap4\n      swap3\n      pop\n      pop\n      pop\n      jump\t// out\n        /* \"#utility.yul\":2310:2436   */\n    tag_86:\n        /* \"#utility.yul\":2347:2354   */\n      0x00\n        /* \"#utility.yul\":2387:2429   */\n      0xffffffffffffffffffffffffffffffffffffffff\n        /* \"#utility.yul\":2380:2385   */\n      dup3\n        /* \"#utility.yul\":2376:2430   */\n      and\n        /* \"#utility.yul\":2365:2430   */\n      swap1\n      pop\n        /* \"#utility.yul\":2310:2436   */\n      swap2\n      swap1\n      pop\n      jump\t// out\n        /* \"#utility.yul\":2442:2538   */\n    tag_87:\n        /* \"#utility.yul\":2479:2486   */\n      0x00\n        /* \"#utility.yul\":2508:2532   */\n      tag_149\n        /* \"#utility.yul\":2526:2531   */\n      dup3\n        /* \"#utility.yul\":2508:2532   */\n      tag_86\n      jump\t// in\n    tag_149:\n        /* \"#utility.yul\":2497:2532   */\n      swap1\n      pop\n        /* \"#utility.yul\":2442:2538   */\n      swap2\n      swap1\n      pop\n      jump\t// out\n        /* \"#utility.yul\":2544:2662   */\n    tag_88:\n        /* \"#utility.yul\":2631:2655   */\n      tag_151\n        /* \"#utility.yul\":2649:2654   */\n      dup2\n        /* \"#utility.yul\":2631:2655   */\n      tag_87\n      jump\t// in\n    tag_151:\n        /* \"#utility.yul\":2626:2629   */\n      dup3\n        /* \"#utility.yul\":2619:2656   */\n      mstore\n        /* \"#utility.yul\":2544:2662   */\n      pop\n      pop\n      jump\t// out\n        /* \"#utility.yul\":2668:2890   */\n    tag_32:\n        /* \"#utility.yul\":2761:2765   */\n      0x00\n        /* \"#utility.yul\":2799:2801   */\n      0x20\n        /* \"#utility.yul\":2788:2797   */\n      dup3\n        /* \"#utility.yul\":2784:2802   */\n      add\n        /* \"#utility.yul\":2776:2802   */\n      swap1\n      pop\n        /* \"#utility.yul\":2812:2883   */\n      tag_153\n        /* \"#utility.yul\":2880:2881   */\n      0x00\n        /* \"#utility.yul\":2869:2878   */\n      dup4\n        /* \"#utility.yul\":2865:2882   */\n      add\n        /* \"#utility.yul\":2856:2862   */\n      dup5\n        /* \"#utility.yul\":2812:2883   */\n      tag_88\n      jump\t// in\n    tag_153:\n        /* \"#utility.yul\":2668:2890   */\n      swap3\n      swap2\n      pop\n      pop\n      jump\t// out\n        /* \"#utility.yul\":2896:3114   */\n    tag_37:\n        /* \"#utility.yul\":2987:2991   */\n      0x00\n        /* \"#utility.yul\":3025:3027   */\n      0x20\n        /* \"#utility.yul\":3014:3023   */\n      dup3\n        /* \"#utility.yul\":3010:3028   */\n      add\n        /* \"#utility.yul\":3002:3028   */\n      swap1\n      pop\n        /* \"#utility.yul\":3038:3107   */\n      tag_155\n        /* \"#utility.yul\":3104:3105   */\n      0x00\n        /* \"#utility.yul\":3093:3102   */\n      dup4\n        /* \"#utility.yul\":3089:3106   */\n      add\n        /* \"#utility.yul\":3080:3086   */\n      dup5\n        /* \"#utility.yul\":3038:3107   */\n      tag_85\n      jump\t// in\n    tag_155:\n        /* \"#utility.yul\":2896:3114   */\n      swap3\n      swap2\n      pop\n      pop\n      jump\t// out\n        /* \"#utility.yul\":3120:3195   */\n    tag_89:\n        /* \"#utility.yul\":3153:3159   */\n      0x00\n        /* \"#utility.yul\":3186:3188   */\n      0x40\n        /* \"#utility.yul\":3180:3189   */\n      mload\n        /* \"#utility.yul\":3170:3189   */\n      swap1\n      pop\n        /* \"#utility.yul\":3120:3195   */\n      swap1\n      jump\t// out\n        /* \"#utility.yul\":3201:3318   */\n    tag_90:\n        /* \"#utility.yul\":3310:3311   */\n      0x00\n        /* \"#utility.yul\":3307:3308   */\n      dup1\n        /* \"#utility.yul\":3300:3312   */\n      revert\n        /* \"#utility.yul\":3324:3441   */\n    tag_91:\n        /* \"#utility.yul\":3433:3434   */\n      0x00\n        /* \"#utility.yul\":3430:3431   */\n      dup1\n        /* \"#utility.yul\":3423:3435   */\n      revert\n        /* \"#utility.yul\":3447:3564   */\n    tag_92:\n        /* \"#utility.yul\":3556:3557   */\n      0x00\n        /* \"#utility.yul\":3553:3554   */\n      dup1\n        /* \"#utility.yul\":3546:3558   */\n      revert\n        /* \"#utility.yul\":3570:3687   */\n    tag_93:\n        /* \"#utility.yul\":3679:3680   */\n      0x00\n        /* \"#utility.yul\":3676:3677   */\n      dup1\n        /* \"#utility.yul\":3669:3681   */\n      revert\n        /* \"#utility.yul\":3693:3873   */\n    tag_94:\n        /* \"#utility.yul\":3741:3818   */\n      0x4e487b7100000000000000000000000000000000000000000000000000000000\n        /* \"#utility.yul\":3738:3739   */\n      0x00\n        /* \"#utility.yul\":3731:3819   */\n      mstore\n        /* \"#utility.yul\":3838:3842   */\n      0x41\n        /* \"#utility.yul\":3835:3836   */\n      0x04\n        /* \"#utility.yul\":3828:3843   */\n      mstore\n        /* \"#utility.yul\":3862:3866   */\n      0x24\n        /* \"#utility.yul\":3859:3860   */\n      0x00\n        /* \"#utility.yul\":3852:3867   */\n      revert\n        /* \"#utility.yul\":3879:4160   */\n    tag_95:\n        /* \"#utility.yul\":3962:3989   */\n      tag_163\n        /* \"#utility.yul\":3984:3988   */\n      dup3\n        /* \"#utility.yul\":3962:3989   */\n      tag_82\n      jump\t// in\n    tag_163:\n        /* \"#utility.yul\":3954:3960   */\n      dup2\n        /* \"#utility.yul\":3950:3990   */\n      add\n        /* \"#utility.yul\":4092:4098   */\n      dup2\n        /* \"#utility.yul\":4080:4090   */\n      dup2\n        /* \"#utility.yul\":4077:4099   */\n      lt\n        /* \"#utility.yul\":4056:4074   */\n      0xffffffffffffffff\n        /* \"#utility.yul\":4044:4054   */\n      dup3\n        /* \"#utility.yul\":4041:4075   */\n      gt\n        /* \"#utility.yul\":4038:4100   */\n      or\n        /* \"#utility.yul\":4035:4123   */\n      iszero\n      tag_164\n      jumpi\n        /* \"#utility.yul\":4103:4121   */\n      tag_165\n      tag_94\n      jump\t// in\n    tag_165:\n        /* \"#utility.yul\":4035:4123   */\n    tag_164:\n        /* \"#utility.yul\":4143:4153   */\n      dup1\n        /* \"#utility.yul\":4139:4141   */\n      0x40\n        /* \"#utility.yul\":4132:4154   */\n      mstore\n        /* \"#utility.yul\":3922:4160   */\n      pop\n        /* \"#utility.yul\":3879:4160   */\n      pop\n      pop\n      jump\t// out\n        /* \"#utility.yul\":4166:4295   */\n    tag_96:\n        /* \"#utility.yul\":4200:4206   */\n      0x00\n        /* \"#utility.yul\":4227:4247   */\n      tag_167\n      tag_89\n      jump\t// in\n    tag_167:\n        /* \"#utility.yul\":4217:4247   */\n      swap1\n      pop\n        /* \"#utility.yul\":4256:4289   */\n      tag_168\n        /* \"#utility.yul\":4284:4288   */\n      dup3\n        /* \"#utility.yul\":4276:4282   */\n      dup3\n        /* \"#utility.yul\":4256:4289   */\n      tag_95\n      jump\t// in\n    tag_168:\n        /* \"#utility.yul\":4166:4295   */\n      swap2\n      swap1\n      pop\n      jump\t// out\n        /* \"#utility.yul\":4301:4609   */\n    tag_97:\n        /* \"#utility.yul\":4363:4367   */\n      0x00\n        /* \"#utility.yul\":4453:4471   */\n      0xffffffffffffffff\n        /* \"#utility.yul\":4445:4451   */\n      dup3\n        /* \"#utility.yul\":4442:4472   */\n      gt\n        /* \"#utility.yul\":4439:4495   */\n      iszero\n      tag_170\n      jumpi\n        /* \"#utility.yul\":4475:4493   */\n      tag_171\n      tag_94\n      jump\t// in\n    tag_171:\n        /* \"#utility.yul\":4439:4495   */\n    tag_170:\n        /* \"#utility.yul\":4513:4542   */\n      tag_172\n        /* \"#utility.yul\":4535:4541   */\n      dup3\n        /* \"#utility.yul\":4513:4542   */\n      tag_82\n      jump\t// in\n    tag_172:\n        /* \"#utility.yul\":4505:4542   */\n      swap1\n      pop\n        /* \"#utility.yul\":4597:4601   */\n      0x20\n        /* \"#utility.yul\":4591:4595   */\n      dup2\n        /* \"#utility.yul\":4587:4602   */\n      add\n        /* \"#utility.yul\":4579:4602   */\n      swap1\n      pop\n        /* \"#utility.yul\":4301:4609   */\n      swap2\n      swap1\n      pop\n      jump\t// out\n        /* \"#utility.yul\":4615:4763   */\n    tag_98:\n        /* \"#utility.yul\":4713:4719   */\n      dup3\n        /* \"#utility.yul\":4708:4711   */\n      dup2\n        /* \"#utility.yul\":4703:4706   */\n      dup4\n        /* \"#utility.yul\":4690:4720   */\n      calldatacopy\n        /* \"#utility.yul\":4754:4755   */\n      0x00\n        /* \"#utility.yul\":4745:4751   */\n      dup4\n        /* \"#utility.yul\":4740:4743   */\n      dup4\n        /* \"#utility.yul\":4736:4752   */\n      add\n        /* \"#utility.yul\":4729:4756   */\n      mstore\n        /* \"#utility.yul\":4615:4763   */\n      pop\n      pop\n      pop\n      jump\t// out\n        /* \"#utility.yul\":4769:5194   */\n    tag_99:\n        /* \"#utility.yul\":4847:4852   */\n      0x00\n        /* \"#utility.yul\":4872:4938   */\n      tag_175\n        /* \"#utility.yul\":4888:4937   */\n      tag_176\n        /* \"#utility.yul\":4930:4936   */\n      dup5\n        /* \"#utility.yul\":4888:4937   */\n      tag_97\n      jump\t// in\n    tag_176:\n        /* \"#utility.yul\":4872:4938   */\n      tag_96\n      jump\t// in\n    tag_175:\n        /* \"#utility.yul\":4863:4938   */\n      swap1\n      pop\n        /* \"#utility.yul\":4961:4967   */\n      dup3\n        /* \"#utility.yul\":4954:4959   */\n      dup2\n        /* \"#utility.yul\":4947:4968   */\n      mstore\n        /* \"#utility.yul\":4999:5003   */\n      0x20\n        /* \"#utility.yul\":4992:4997   */\n      dup2\n        /* \"#utility.yul\":4988:5004   */\n      add\n        /* \"#utility.yul\":5037:5040   */\n      dup5\n        /* \"#utility.yul\":5028:5034   */\n      dup5\n        /* \"#utility.yul\":5023:5026   */\n      dup5\n        /* \"#utility.yul\":5019:5035   */\n      add\n        /* \"#utility.yul\":5016:5041   */\n      gt\n        /* \"#utility.yul\":5013:5125   */\n      iszero\n      tag_177\n      jumpi\n        /* \"#utility.yul\":5044:5123   */\n      tag_178\n      tag_93\n      jump\t// in\n    tag_178:\n        /* \"#utility.yul\":5013:5125   */\n    tag_177:\n        /* \"#utility.yul\":5134:5188   */\n      tag_179\n        /* \"#utility.yul\":5181:5187   */\n      dup5\n        /* \"#utility.yul\":5176:5179   */\n      dup3\n        /* \"#utility.yul\":5171:5174   */\n      dup6\n        /* \"#utility.yul\":5134:5188   */\n      tag_98\n      jump\t// in\n    tag_179:\n        /* \"#utility.yul\":4853:5194   */\n      pop\n        /* \"#utility.yul\":4769:5194   */\n      swap4\n      swap3\n      pop\n      pop\n      pop\n      jump\t// out\n        /* \"#utility.yul\":5214:5554   */\n    tag_100:\n        /* \"#utility.yul\":5270:5275   */\n      0x00\n        /* \"#utility.yul\":5319:5322   */\n      dup3\n        /* \"#utility.yul\":5312:5316   */\n      0x1f\n        /* \"#utility.yul\":5304:5310   */\n      dup4\n        /* \"#utility.yul\":5300:5317   */\n      add\n        /* \"#utility.yul\":5296:5323   */\n      slt\n        /* \"#utility.yul\":5286:5408   */\n      tag_181\n      jumpi\n        /* \"#utility.yul\":5327:5406   */\n      tag_182\n      tag_92\n      jump\t// in\n    tag_182:\n        /* \"#utility.yul\":5286:5408   */\n    tag_181:\n        /* \"#utility.yul\":5444:5450   */\n      dup2\n        /* \"#utility.yul\":5431:5451   */\n      calldataload\n        /* \"#utility.yul\":5469:5548   */\n      tag_183\n        /* \"#utility.yul\":5544:5547   */\n      dup5\n        /* \"#utility.yul\":5536:5542   */\n      dup3\n        /* \"#utility.yul\":5529:5533   */\n      0x20\n        /* \"#utility.yul\":5521:5527   */\n      dup7\n        /* \"#utility.yul\":5517:5534   */\n      add\n        /* \"#utility.yul\":5469:5548   */\n      tag_99\n      jump\t// in\n    tag_183:\n        /* \"#utility.yul\":5460:5548   */\n      swap2\n      pop\n        /* \"#utility.yul\":5276:5554   */\n      pop\n        /* \"#utility.yul\":5214:5554   */\n      swap3\n      swap2\n      pop\n      pop\n      jump\t// out\n        /* \"#utility.yul\":5560:5680   */\n    tag_101:\n        /* \"#utility.yul\":5632:5655   */\n      tag_185\n        /* \"#utility.yul\":5649:5654   */\n      dup2\n        /* \"#utility.yul\":5632:5655   */\n      tag_84\n      jump\t// in\n    tag_185:\n        /* \"#utility.yul\":5625:5630   */\n      dup2\n        /* \"#utility.yul\":5622:5656   */\n      eq\n        /* \"#utility.yul\":5612:5674   */\n      tag_186\n      jumpi\n        /* \"#utility.yul\":5670:5671   */\n      0x00\n        /* \"#utility.yul\":5667:5668   */\n      dup1\n        /* \"#utility.yul\":5660:5672   */\n      revert\n        /* \"#utility.yul\":5612:5674   */\n    tag_186:\n        /* \"#utility.yul\":5560:5680   */\n      pop\n      jump\t// out\n        /* \"#utility.yul\":5686:5823   */\n    tag_102:\n        /* \"#utility.yul\":5731:5736   */\n      0x00\n        /* \"#utility.yul\":5769:5775   */\n      dup2\n        /* \"#utility.yul\":5756:5776   */\n      calldataload\n        /* \"#utility.yul\":5747:5776   */\n      swap1\n      pop\n        /* \"#utility.yul\":5785:5817   */\n      tag_188\n        /* \"#utility.yul\":5811:5816   */\n      dup2\n        /* \"#utility.yul\":5785:5817   */\n      tag_101\n      jump\t// in\n    tag_188:\n        /* \"#utility.yul\":5686:5823   */\n      swap3\n      swap2\n      pop\n      pop\n      jump\t// out\n        /* \"#utility.yul\":5829:6481   */\n    tag_41:\n        /* \"#utility.yul\":5906:5912   */\n      0x00\n        /* \"#utility.yul\":5914:5920   */\n      dup1\n        /* \"#utility.yul\":5963:5965   */\n      0x40\n        /* \"#utility.yul\":5951:5960   */\n      dup4\n        /* \"#utility.yul\":5942:5949   */\n      dup6\n        /* \"#utility.yul\":5938:5961   */\n      sub\n        /* \"#utility.yul\":5934:5966   */\n      slt\n        /* \"#utility.yul\":5931:6050   */\n      iszero\n      tag_190\n      jumpi\n        /* \"#utility.yul\":5969:6048   */\n      tag_191\n      tag_90\n      jump\t// in\n    tag_191:\n        /* \"#utility.yul\":5931:6050   */\n    tag_190:\n        /* \"#utility.yul\":6117:6118   */\n      0x00\n        /* \"#utility.yul\":6106:6115   */\n      dup4\n        /* \"#utility.yul\":6102:6119   */\n      add\n        /* \"#utility.yul\":6089:6120   */\n      calldataload\n        /* \"#utility.yul\":6147:6165   */\n      0xffffffffffffffff\n        /* \"#utility.yul\":6139:6145   */\n      dup2\n        /* \"#utility.yul\":6136:6166   */\n      gt\n        /* \"#utility.yul\":6133:6250   */\n      iszero\n      tag_192\n      jumpi\n        /* \"#utility.yul\":6169:6248   */\n      tag_193\n      tag_91\n      jump\t// in\n    tag_193:\n        /* \"#utility.yul\":6133:6250   */\n    tag_192:\n        /* \"#utility.yul\":6274:6337   */\n      tag_194\n        /* \"#utility.yul\":6329:6336   */\n      dup6\n        /* \"#utility.yul\":6320:6326   */\n      dup3\n        /* \"#utility.yul\":6309:6318   */\n      dup7\n        /* \"#utility.yul\":6305:6327   */\n      add\n        /* \"#utility.yul\":6274:6337   */\n      tag_100\n      jump\t// in\n    tag_194:\n        /* \"#utility.yul\":6264:6337   */\n      swap3\n      pop\n        /* \"#utility.yul\":6060:6347   */\n      pop\n        /* \"#utility.yul\":6386:6388   */\n      0x20\n        /* \"#utility.yul\":6412:6464   */\n      tag_195\n        /* \"#utility.yul\":6456:6463   */\n      dup6\n        /* \"#utility.yul\":6447:6453   */\n      dup3\n        /* \"#utility.yul\":6436:6445   */\n      dup7\n        /* \"#utility.yul\":6432:6454   */\n      add\n        /* \"#utility.yul\":6412:6464   */\n      tag_102\n      jump\t// in\n    tag_195:\n        /* \"#utility.yul\":6402:6464   */\n      swap2\n      pop\n        /* \"#utility.yul\":6357:6474   */\n      pop\n        /* \"#utility.yul\":5829:6481   */\n      swap3\n      pop\n      swap3\n      swap1\n      pop\n      jump\t// out\n        /* \"#utility.yul\":6487:6564   */\n    tag_103:\n        /* \"#utility.yul\":6524:6531   */\n      0x00\n        /* \"#utility.yul\":6553:6558   */\n      dup2\n        /* \"#utility.yul\":6542:6558   */\n      swap1\n      pop\n        /* \"#utility.yul\":6487:6564   */\n      swap2\n      swap1\n      pop\n      jump\t// out\n        /* \"#utility.yul\":6570:6692   */\n    tag_104:\n        /* \"#utility.yul\":6643:6667   */\n      tag_198\n        /* \"#utility.yul\":6661:6666   */\n      dup2\n        /* \"#utility.yul\":6643:6667   */\n      tag_103\n      jump\t// in\n    tag_198:\n        /* \"#utility.yul\":6636:6641   */\n      dup2\n        /* \"#utility.yul\":6633:6668   */\n      eq\n        /* \"#utility.yul\":6623:6686   */\n      tag_199\n      jumpi\n        /* \"#utility.yul\":6682:6683   */\n      0x00\n        /* \"#utility.yul\":6679:6680   */\n      dup1\n        /* \"#utility.yul\":6672:6684   */\n      revert\n        /* \"#utility.yul\":6623:6686   */\n    tag_199:\n        /* \"#utility.yul\":6570:6692   */\n      pop\n      jump\t// out\n        /* \"#utility.yul\":6698:6837   */\n    tag_105:\n        /* \"#utility.yul\":6744:6749   */\n      0x00\n        /* \"#utility.yul\":6782:6788   */\n      dup2\n        /* \"#utility.yul\":6769:6789   */\n      calldataload\n        /* \"#utility.yul\":6760:6789   */\n      swap1\n      pop\n        /* \"#utility.yul\":6798:6831   */\n      tag_201\n        /* \"#utility.yul\":6825:6830   */\n      dup2\n        /* \"#utility.yul\":6798:6831   */\n      tag_104\n      jump\t// in\n    tag_201:\n        /* \"#utility.yul\":6698:6837   */\n      swap3\n      swap2\n      pop\n      pop\n      jump\t// out\n        /* \"#utility.yul\":6843:7172   */\n    tag_46:\n        /* \"#utility.yul\":6902:6908   */\n      0x00\n        /* \"#utility.yul\":6951:6953   */\n      0x20\n        /* \"#utility.yul\":6939:6948   */\n      dup3\n        /* \"#utility.yul\":6930:6937   */\n      dup5\n        /* \"#utility.yul\":6926:6949   */\n      sub\n        /* \"#utility.yul\":6922:6954   */\n      slt\n        /* \"#utility.yul\":6919:7038   */\n      iszero\n      tag_203\n      jumpi\n        /* \"#utility.yul\":6957:7036   */\n      tag_204\n      tag_90\n      jump\t// in\n    tag_204:\n        /* \"#utility.yul\":6919:7038   */\n    tag_203:\n        /* \"#utility.yul\":7077:7078   */\n      0x00\n        /* \"#utility.yul\":7102:7155   */\n      tag_205\n        /* \"#utility.yul\":7147:7154   */\n      dup5\n        /* \"#utility.yul\":7138:7144   */\n      dup3\n        /* \"#utility.yul\":7127:7136   */\n      dup6\n        /* \"#utility.yul\":7123:7145   */\n      add\n        /* \"#utility.yul\":7102:7155   */\n      tag_105\n      jump\t// in\n    tag_205:\n        /* \"#utility.yul\":7092:7155   */\n      swap2\n      pop\n        /* \"#utility.yul\":7048:7165   */\n      pop\n        /* \"#utility.yul\":6843:7172   */\n      swap3\n      swap2\n      pop\n      pop\n      jump\t// out\n        /* \"#utility.yul\":7178:7296   */\n    tag_106:\n        /* \"#utility.yul\":7265:7289   */\n      tag_207\n        /* \"#utility.yul\":7283:7288   */\n      dup2\n        /* \"#utility.yul\":7265:7289   */\n      tag_103\n      jump\t// in\n    tag_207:\n        /* \"#utility.yul\":7260:7263   */\n      dup3\n        /* \"#utility.yul\":7253:7290   */\n      mstore\n        /* \"#utility.yul\":7178:7296   */\n      pop\n      pop\n      jump\t// out\n        /* \"#utility.yul\":7302:7524   */\n    tag_49:\n        /* \"#utility.yul\":7395:7399   */\n      0x00\n        /* \"#utility.yul\":7433:7435   */\n      0x20\n        /* \"#utility.yul\":7422:7431   */\n      dup3\n        /* \"#utility.yul\":7418:7436   */\n      add\n        /* \"#utility.yul\":7410:7436   */\n      swap1\n      pop\n        /* \"#utility.yul\":7446:7517   */\n      tag_209\n        /* \"#utility.yul\":7514:7515   */\n      0x00\n        /* \"#utility.yul\":7503:7512   */\n      dup4\n        /* \"#utility.yul\":7499:7516   */\n      add\n        /* \"#utility.yul\":7490:7496   */\n      dup5\n        /* \"#utility.yul\":7446:7517   */\n      tag_106\n      jump\t// in\n    tag_209:\n        /* \"#utility.yul\":7302:7524   */\n      swap3\n      swap2\n      pop\n      pop\n      jump\t// out\n        /* \"#utility.yul\":7530:7710   */\n    tag_107:\n        /* \"#utility.yul\":7578:7655   */\n      0x4e487b7100000000000000000000000000000000000000000000000000000000\n        /* \"#utility.yul\":7575:7576   */\n      0x00\n        /* \"#utility.yul\":7568:7656   */\n      mstore\n        /* \"#utility.yul\":7675:7679   */\n      0x22\n        /* \"#utility.yul\":7672:7673   */\n      0x04\n        /* \"#utility.yul\":7665:7680   */\n      mstore\n        /* \"#utility.yul\":7699:7703   */\n      0x24\n        /* \"#utility.yul\":7696:7697   */\n      0x00\n        /* \"#utility.yul\":7689:7704   */\n      revert\n        /* \"#utility.yul\":7716:8036   */\n    tag_51:\n        /* \"#utility.yul\":7760:7766   */\n      0x00\n        /* \"#utility.yul\":7797:7798   */\n      0x02\n        /* \"#utility.yul\":7791:7795   */\n      dup3\n        /* \"#utility.yul\":7787:7799   */\n      div\n        /* \"#utility.yul\":7777:7799   */\n      swap1\n      pop\n        /* \"#utility.yul\":7844:7845   */\n      0x01\n        /* \"#utility.yul\":7838:7842   */\n      dup3\n        /* \"#utility.yul\":7834:7846   */\n      and\n        /* \"#utility.yul\":7865:7883   */\n      dup1\n        /* \"#utility.yul\":7855:7936   */\n      tag_212\n      jumpi\n        /* \"#utility.yul\":7921:7925   */\n      0x7f\n        /* \"#utility.yul\":7913:7919   */\n      dup3\n        /* \"#utility.yul\":7909:7926   */\n      and\n        /* \"#utility.yul\":7899:7926   */\n      swap2\n      pop\n        /* \"#utility.yul\":7855:7936   */\n    tag_212:\n        /* \"#utility.yul\":7983:7985   */\n      0x20\n        /* \"#utility.yul\":7975:7981   */\n      dup3\n        /* \"#utility.yul\":7972:7986   */\n      lt\n        /* \"#utility.yul\":7952:7970   */\n      dup2\n        /* \"#utility.yul\":7949:7987   */\n      sub\n        /* \"#utility.yul\":7946:8030   */\n      tag_213\n      jumpi\n        /* \"#utility.yul\":8002:8020   */\n      tag_214\n      tag_107\n      jump\t// in\n    tag_214:\n        /* \"#utility.yul\":7946:8030   */\n    tag_213:\n        /* \"#utility.yul\":7767:8036   */\n      pop\n        /* \"#utility.yul\":7716:8036   */\n      swap2\n      swap1\n      pop\n      jump\t// out\n        /* \"#utility.yul\":8042:8222   */\n    tag_108:\n        /* \"#utility.yul\":8090:8167   */\n      0x4e487b7100000000000000000000000000000000000000000000000000000000\n        /* \"#utility.yul\":8087:8088   */\n      0x00\n        /* \"#utility.yul\":8080:8168   */\n      mstore\n        /* \"#utility.yul\":8187:8191   */\n      0x11\n        /* \"#utility.yul\":8184:8185   */\n      0x04\n        /* \"#utility.yul\":8177:8192   */\n      mstore\n        /* \"#utility.yul\":8211:8215   */\n      0x24\n        /* \"#utility.yul\":8208:8209   */\n      0x00\n        /* \"#utility.yul\":8201:8216   */\n      revert\n        /* \"#utility.yul\":8228:8422   */\n    tag_61:\n        /* \"#utility.yul\":8268:8272   */\n      0x00\n        /* \"#utility.yul\":8288:8308   */\n      tag_217\n        /* \"#utility.yul\":8306:8307   */\n      dup3\n        /* \"#utility.yul\":8288:8308   */\n      tag_103\n      jump\t// in\n    tag_217:\n        /* \"#utility.yul\":8283:8308   */\n      swap2\n      pop\n        /* \"#utility.yul\":8322:8342   */\n      tag_218\n        /* \"#utility.yul\":8340:8341   */\n      dup4\n        /* \"#utility.yul\":8322:8342   */\n      tag_103\n      jump\t// in\n    tag_218:\n        /* \"#utility.yul\":8317:8342   */\n      swap3\n      pop\n        /* \"#utility.yul\":8366:8367   */\n      dup3\n        /* \"#utility.yul\":8363:8364   */\n      dup3\n        /* \"#utility.yul\":8359:8368   */\n      sub\n        /* \"#utility.yul\":8351:8368   */\n      swap1\n      pop\n        /* \"#utility.yul\":8390:8391   */\n      dup2\n        /* \"#utility.yul\":8384:8388   */\n      dup2\n        /* \"#utility.yul\":8381:8392   */\n      gt\n        /* \"#utility.yul\":8378:8415   */\n      iszero\n      tag_219\n      jumpi\n        /* \"#utility.yul\":8395:8413   */\n      tag_220\n      tag_108\n      jump\t// in\n    tag_220:\n        /* \"#utility.yul\":8378:8415   */\n    tag_219:\n        /* \"#utility.yul\":8228:8422   */\n      swap3\n      swap2\n      pop\n      pop\n      jump\t// out\n        /* \"#utility.yul\":8428:8569   */\n    tag_109:\n        /* \"#utility.yul\":8477:8481   */\n      0x00\n        /* \"#utility.yul\":8500:8503   */\n      dup2\n        /* \"#utility.yul\":8492:8503   */\n      swap1\n      pop\n        /* \"#utility.yul\":8523:8526   */\n      dup2\n        /* \"#utility.yul\":8520:8521   */\n      0x00\n        /* \"#utility.yul\":8513:8527   */\n      mstore\n        /* \"#utility.yul\":8557:8561   */\n      0x20\n        /* \"#utility.yul\":8554:8555   */\n      0x00\n        /* \"#utility.yul\":8544:8562   */\n      keccak256\n        /* \"#utility.yul\":8536:8562   */\n      swap1\n      pop\n        /* \"#utility.yul\":8428:8569   */\n      swap2\n      swap1\n      pop\n      jump\t// out\n        /* \"#utility.yul\":8575:8668   */\n    tag_110:\n        /* \"#utility.yul\":8612:8618   */\n      0x00\n        /* \"#utility.yul\":8659:8661   */\n      0x20\n        /* \"#utility.yul\":8654:8656   */\n      0x1f\n        /* \"#utility.yul\":8647:8652   */\n      dup4\n        /* \"#utility.yul\":8643:8657   */\n      add\n        /* \"#utility.yul\":8639:8662   */\n      div\n        /* \"#utility.yul\":8629:8662   */\n      swap1\n      pop\n        /* \"#utility.yul\":8575:8668   */\n      swap2\n      swap1\n      pop\n      jump\t// out\n        /* \"#utility.yul\":8674:8781   */\n    tag_111:\n        /* \"#utility.yul\":8718:8726   */\n      0x00\n        /* \"#utility.yul\":8768:8773   */\n      dup3\n        /* \"#utility.yul\":8762:8766   */\n      dup3\n        /* \"#utility.yul\":8758:8774   */\n      shl\n        /* \"#utility.yul\":8737:8774   */\n      swap1\n      pop\n        /* \"#utility.yul\":8674:8781   */\n      swap3\n      swap2\n      pop\n      pop\n      jump\t// out\n        /* \"#utility.yul\":8787:9180   */\n    tag_112:\n        /* \"#utility.yul\":8856:8862   */\n      0x00\n        /* \"#utility.yul\":8906:8907   */\n      0x08\n        /* \"#utility.yul\":8894:8904   */\n      dup4\n        /* \"#utility.yul\":8890:8908   */\n      mul\n        /* \"#utility.yul\":8929:9026   */\n      tag_225\n        /* \"#utility.yul\":8959:9025   */\n      0xffffffffffffffffffffffffffffffffffffffffffffffffffffffffffffffff\n        /* \"#utility.yul\":8948:8957   */\n      dup3\n        /* \"#utility.yul\":8929:9026   */\n      tag_111\n      jump\t// in\n    tag_225:\n        /* \"#utility.yul\":9047:9086   */\n      tag_226\n        /* \"#utility.yul\":9077:9085   */\n      dup7\n        /* \"#utility.yul\":9066:9075   */\n      dup4\n        /* \"#utility.yul\":9047:9086   */\n      tag_111\n      jump\t// in\n    tag_226:\n        /* \"#utility.yul\":9035:9086   */\n      swap6\n      pop\n        /* \"#utility.yul\":9119:9123   */\n      dup1\n        /* \"#utility.yul\":9115:9124   */\n      not\n        /* \"#utility.yul\":9108:9113   */\n      dup5\n        /* \"#utility.yul\":9104:9125   */\n      and\n        /* \"#utility.yul\":9095:9125   */\n      swap4\n      pop\n        /* \"#utility.yul\":9168:9172   */\n      dup1\n        /* \"#utility.yul\":9158:9166   */\n      dup7\n        /* \"#utility.yul\":9154:9173   */\n      and\n        /* \"#utility.yul\":9147:9152   */\n      dup5\n        /* \"#utility.yul\":9144:9174   */\n      or\n        /* \"#utility.yul\":9134:9174   */\n      swap3\n      pop\n        /* \"#utility.yul\":8863:9180   */\n      pop\n      pop\n        /* \"#utility.yul\":8787:9180   */\n      swap4\n      swap3\n      pop\n      pop\n      pop\n      jump\t// out\n        /* \"#utility.yul\":9186:9246   */\n    tag_113:\n        /* \"#utility.yul\":9214:9217   */\n      0x00\n        /* \"#utility.yul\":9235:9240   */\n      dup2\n        /* \"#utility.yul\":9228:9240   */\n      swap1\n      pop\n        /* \"#utility.yul\":9186:9246   */\n      swap2\n      swap1\n      pop\n      jump\t// out\n        /* \"#utility.yul\":9252:9394   */\n    tag_114:\n        /* \"#utility.yul\":9302:9311   */\n      0x00\n        /* \"#utility.yul\":9335:9388   */\n      tag_229\n        /* \"#utility.yul\":9353:9387   */\n      tag_230\n        /* \"#utility.yul\":9362:9386   */\n      tag_231\n        /* \"#utility.yul\":9380:9385   */\n      dup5\n        /* \"#utility.yul\":9362:9386   */\n      tag_103\n      jump\t// in\n    tag_231:\n        /* \"#utility.yul\":9353:9387   */\n      tag_113\n      jump\t// in\n    tag_230:\n        /* \"#utility.yul\":9335:9388   */\n      tag_103\n      jump\t// in\n    tag_229:\n        /* \"#utility.yul\":9322:9388   */\n      swap1\n      pop\n        /* \"#utility.yul\":9252:9394   */\n      swap2\n      swap1\n      pop\n      jump\t// out\n        /* \"#utility.yul\":9400:9475   */\n    tag_115:\n        /* \"#utility.yul\":9443:9446   */\n      0x00\n        /* \"#utility.yul\":9464:9469   */\n      dup2\n        /* \"#utility.yul\":9457:9469   */\n      swap1\n      pop\n        /* \"#utility.yul\":9400:9475   */\n      swap2\n      swap1\n      pop\n      jump\t// out\n        /* \"#utility.yul\":9481:9750   */\n    tag_116:\n        /* \"#utility.yul\":9591:9630   */\n      tag_234\n        /* \"#utility.yul\":9622:9629   */\n      dup4\n        /* \"#utility.yul\":9591:9630   */\n      tag_114\n      jump\t// in\n    tag_234:\n        /* \"#utility.yul\":9652:9743   */\n      tag_235\n        /* \"#utility.yul\":9701:9742   */\n      tag_236\n        /* \"#utility.yul\":9725:9741   */\n      dup3\n        /* \"#utility.yul\":9701:9742   */\n      tag_115\n      jump\t// in\n    tag_236:\n        /* \"#utility.yul\":9693:9699   */\n      dup5\n        /* \"#utility.yul\":9686:9690   */\n      dup5\n        /* \"#utility.yul\":9680:9691   */\n      sload\n        /* \"#utility.yul\":9652:9743   */\n      tag_112\n      jump\t// in\n    tag_235:\n        /* \"#utility.yul\":9646:9650   */\n      dup3\n        /* \"#utility.yul\":9639:9744   */\n      sstore\n        /* \"#utility.yul\":9557:9750   */\n      pop\n        /* \"#utility.yul\":9481:9750   */\n      pop\n      pop\n      pop\n      jump\t// out\n        /* \"#utility.yul\":9756:9829   */\n    tag_117:\n        /* \"#utility.yul\":9801:9804   */\n      0x00\n        /* \"#utility.yul\":9756:9829   */\n      swap1\n      jump\t// out\n        /* \"#utility.yul\":9835:10024   */\n    tag_118:\n        /* \"#utility.yul\":9912:9944   */\n      tag_239\n      tag_117\n      jump\t// in\n    tag_239:\n        /* \"#utility.yul\":9953:10018   */\n      tag_240\n        /* \"#utility.yul\":10011:10017   */\n      dup2\n        /* \"#utility.yul\":10003:10009   */\n      dup5\n        /* \"#utility.yul\":9997:10001   */\n      dup5\n        /* \"#utility.yul\":9953:10018   */\n      tag_116\n      jump\t// in\n    tag_240:\n        /* \"#utility.yul\":9888:10024   */\n      pop\n        /* \"#utility.yul\":9835:10024   */\n      pop\n      pop\n      jump\t// out\n        /* \"#utility.yul\":10030:10216   */\n    tag_119:\n        /* \"#utility.yul\":10090:10210   */\n    tag_242:\n        /* \"#utility.yul\":10107:10110   */\n      dup2\n        /* \"#utility.yul\":10100:10105   */\n      dup2\n        /* \"#utility.yul\":10097:10111   */\n      lt\n        /* \"#utility.yul\":10090:10210   */\n      iszero\n      tag_244\n      jumpi\n        /* \"#utility.yul\":10161:10200   */\n      tag_245\n        /* \"#utility.yul\":10198:10199   */\n      0x00\n        /* \"#utility.yul\":10191:10196   */\n      dup3\n        /* \"#utility.yul\":10161:10200   */\n      tag_118\n      jump\t// in\n    tag_245:\n        /* \"#utility.yul\":10134:10135   */\n      0x01\n        /* \"#utility.yul\":10127:10132   */\n      dup2\n        /* \"#utility.yul\":10123:10136   */\n      add\n        /* \"#utility.yul\":10114:10136   */\n      swap1\n      pop\n        /* \"#utility.yul\":10090:10210   */\n      jump(tag_242)\n    tag_244:\n        /* \"#utility.yul\":10030:10216   */\n      pop\n      pop\n      jump\t// out\n        /* \"#utility.yul\":10222:10765   */\n    tag_120:\n        /* \"#utility.yul\":10323:10325   */\n      0x1f\n        /* \"#utility.yul\":10318:10321   */\n      dup3\n        /* \"#utility.yul\":10315:10326   */\n      gt\n        /* \"#utility.yul\":10312:10758   */\n      iszero\n      tag_247\n      jumpi\n        /* \"#utility.yul\":10357:10395   */\n      tag_248\n        /* \"#utility.yul\":10389:10394   */\n      dup2\n        /* \"#utility.yul\":10357:10395   */\n      tag_109\n      jump\t// in\n    tag_248:\n        /* \"#utility.yul\":10441:10470   */\n      tag_249\n        /* \"#utility.yul\":10459:10469   */\n      dup5\n        /* \"#utility.yul\":10441:10470   */\n      tag_110\n      jump\t// in\n    tag_249:\n        /* \"#utility.yul\":10431:10439   */\n      dup2\n        /* \"#utility.yul\":10427:10471   */\n      add\n        /* \"#utility.yul\":10624:10626   */\n      0x20\n        /* \"#utility.yul\":10612:10622   */\n      dup6\n        /* \"#utility.yul\":10609:10627   */\n      lt\n        /* \"#utility.yul\":10606:10655   */\n      iszero\n      tag_250\n      jumpi\n        /* \"#utility.yul\":10645:10653   */\n      dup2\n        /* \"#utility.yul\":10630:10653   */\n      swap1\n      pop\n        /* \"#utility.yul\":10606:10655   */\n    tag_250:\n        /* \"#utility.yul\":10668:10748   */\n      tag_251\n        /* \"#utility.yul\":10724:10746   */\n      tag_252\n        /* \"#utility.yul\":10742:10745   */\n      dup6\n        /* \"#utility.yul\":10724:10746   */\n      tag_110\n      jump\t// in\n    tag_252:\n        /* \"#utility.yul\":10714:10722   */\n      dup4\n        /* \"#utility.yul\":10710:10747   */\n      add\n        /* \"#utility.yul\":10697:10708   */\n      dup3\n        /* \"#utility.yul\":10668:10748   */\n      tag_119\n      jump\t// in\n    tag_251:\n        /* \"#utility.yul\":10327:10758   */\n      pop\n      pop\n        /* \"#utility.yul\":10312:10758   */\n    tag_247:\n        /* \"#utility.yul\":10222:10765   */\n      pop\n      pop\n      pop\n      jump\t// out\n        /* \"#utility.yul\":10771:10888   */\n    tag_121:\n        /* \"#utility.yul\":10825:10833   */\n      0x00\n        /* \"#utility.yul\":10875:10880   */\n      dup3\n        /* \"#utility.yul\":10869:10873   */\n      dup3\n        /* \"#utility.yul\":10865:10881   */\n      shr\n        /* \"#utility.yul\":10844:10881   */\n      swap1\n      pop\n        /* \"#utility.yul\":10771:10888   */\n      swap3\n      swap2\n      pop\n      pop\n      jump\t// out\n        /* \"#utility.yul\":10894:11063   */\n    tag_122:\n        /* \"#utility.yul\":10938:10944   */\n      0x00\n        /* \"#utility.yul\":10971:11022   */\n      tag_255\n        /* \"#utility.yul\":11019:11020   */\n      0x00\n        /* \"#utility.yul\":11015:11021   */\n      not\n        /* \"#utility.yul\":11007:11012   */\n      dup5\n        /* \"#utility.yul\":11004:11005   */\n      0x08\n        /* \"#utility.yul\":11000:11013   */\n      mul\n        /* \"#utility.yul\":10971:11022   */\n      tag_121\n      jump\t// in\n    tag_255:\n        /* \"#utility.yul\":10967:11023   */\n      not\n        /* \"#utility.yul\":11052:11056   */\n      dup1\n        /* \"#utility.yul\":11046:11050   */\n      dup4\n        /* \"#utility.yul\":11042:11057   */\n      and\n        /* \"#utility.yul\":11032:11057   */\n      swap2\n      pop\n        /* \"#utility.yul\":10945:11063   */\n      pop\n        /* \"#utility.yul\":10894:11063   */\n      swap3\n      swap2\n      pop\n      pop\n      jump\t// out\n        /* \"#utility.yul\":11068:11363   */\n    tag_123:\n        /* \"#utility.yul\":11144:11148   */\n      0x00\n        /* \"#utility.yul\":11290:11319   */\n      tag_257\n        /* \"#utility.yul\":11315:11318   */\n      dup4\n        /* \"#utility.yul\":11309:11313   */\n      dup4\n        /* \"#utility.yul\":11290:11319   */\n      tag_122\n      jump\t// in\n    tag_257:\n        /* \"#utility.yul\":11282:11319   */\n      swap2\n      pop\n        /* \"#utility.yul\":11352:11355   */\n      dup3\n        /* \"#utility.yul\":11349:11350   */\n      0x02\n        /* \"#utility.yul\":11345:11356   */\n      mul\n        /* \"#utility.yul\":11339:11343   */\n      dup3\n        /* \"#utility.yul\":11336:11357   */\n      or\n        /* \"#utility.yul\":11328:11357   */\n      swap1\n      pop\n        /* \"#utility.yul\":11068:11363   */\n      swap3\n      swap2\n      pop\n      pop\n      jump\t// out\n        /* \"#utility.yul\":11368:12763   */\n    tag_73:\n        /* \"#utility.yul\":11485:11522   */\n      tag_259\n        /* \"#utility.yul\":11518:11521   */\n      dup3\n        /* \"#utility.yul\":11485:11522   */\n      tag_79\n      jump\t// in\n    tag_259:\n        /* \"#utility.yul\":11587:11605   */\n      0xffffffffffffffff\n        /* \"#utility.yul\":11579:11585   */\n      dup2\n        /* \"#utility.yul\":11576:11606   */\n      gt\n        /* \"#utility.yul\":11573:11629   */\n      iszero\n      tag_260\n      jumpi\n        /* \"#utility.yul\":11609:11627   */\n      tag_261\n      tag_94\n      jump\t// in\n    tag_261:\n        /* \"#utility.yul\":11573:11629   */\n    tag_260:\n        /* \"#utility.yul\":11653:11691   */\n      tag_262\n        /* \"#utility.yul\":11685:11689   */\n      dup3\n        /* \"#utility.yul\":11679:11690   */\n      sload\n        /* \"#utility.yul\":11653:11691   */\n      tag_51\n      jump\t// in\n    tag_262:\n        /* \"#utility.yul\":11738:11805   */\n      tag_263\n        /* \"#utility.yul\":11798:11804   */\n      dup3\n        /* \"#utility.yul\":11790:11796   */\n      dup3\n        /* \"#utility.yul\":11784:11788   */\n      dup6\n        /* \"#utility.yul\":11738:11805   */\n      tag_120\n      jump\t// in\n    tag_263:\n        /* \"#utility.yul\":11832:11833   */\n      0x00\n        /* \"#utility.yul\":11856:11860   */\n      0x20\n        /* \"#utility.yul\":11843:11860   */\n      swap1\n      pop\n        /* \"#utility.yul\":11888:11890   */\n      0x1f\n        /* \"#utility.yul\":11880:11886   */\n      dup4\n        /* \"#utility.yul\":11877:11891   */\n      gt\n        /* \"#utility.yul\":11905:11906   */\n      0x01\n        /* \"#utility.yul\":11900:12518   */\n      dup2\n      eq\n      tag_265\n      jumpi\n        /* \"#utility.yul\":12562:12563   */\n      0x00\n        /* \"#utility.yul\":12579:12585   */\n      dup5\n        /* \"#utility.yul\":12576:12653   */\n      iszero\n      tag_266\n      jumpi\n        /* \"#utility.yul\":12628:12637   */\n      dup3\n        /* \"#utility.yul\":12623:12626   */\n      dup8\n        /* \"#utility.yul\":12619:12638   */\n      add\n        /* \"#utility.yul\":12613:12639   */\n      mload\n        /* \"#utility.yul\":12604:12639   */\n      swap1\n      pop\n        /* \"#utility.yul\":12576:12653   */\n    tag_266:\n        /* \"#utility.yul\":12679:12746   */\n      tag_267\n        /* \"#utility.yul\":12739:12745   */\n      dup6\n        /* \"#utility.yul\":12732:12737   */\n      dup3\n        /* \"#utility.yul\":12679:12746   */\n      tag_123\n      jump\t// in\n    tag_267:\n        /* \"#utility.yul\":12673:12677   */\n      dup7\n        /* \"#utility.yul\":12666:12747   */\n      sstore\n        /* \"#utility.yul\":12535:12757   */\n      pop\n        /* \"#utility.yul\":11870:12757   */\n      jump(tag_264)\n        /* \"#utility.yul\":11900:12518   */\n    tag_265:\n        /* \"#utility.yul\":11952:11956   */\n      0x1f\n        /* \"#utility.yul\":11948:11957   */\n      not\n        /* \"#utility.yul\":11940:11946   */\n      dup5\n        /* \"#utility.yul\":11936:11958   */\n      and\n        /* \"#utility.yul\":11986:12023   */\n      tag_268\n        /* \"#utility.yul\":12018:12022   */\n      dup7\n        /* \"#utility.yul\":11986:12023   */\n      tag_109\n      jump\t// in\n    tag_268:\n        /* \"#utility.yul\":12045:12046   */\n      0x00\n        /* \"#utility.yul\":12059:12267   */\n    tag_269:\n        /* \"#utility.yul\":12073:12080   */\n      dup3\n        /* \"#utility.yul\":12070:12071   */\n      dup2\n        /* \"#utility.yul\":12067:12081   */\n      lt\n        /* \"#utility.yul\":12059:12267   */\n      iszero\n      tag_271\n      jumpi\n        /* \"#utility.yul\":12152:12161   */\n      dup5\n        /* \"#utility.yul\":12147:12150   */\n      dup10\n        /* \"#utility.yul\":12143:12162   */\n      add\n        /* \"#utility.yul\":12137:12163   */\n      mload\n        /* \"#utility.yul\":12129:12135   */\n      dup3\n        /* \"#utility.yul\":12122:12164   */\n      sstore\n        /* \"#utility.yul\":12203:12204   */\n      0x01\n        /* \"#utility.yul\":12195:12201   */\n      dup3\n        /* \"#utility.yul\":12191:12205   */\n      add\n        /* \"#utility.yul\":12181:12205   */\n      swap2\n      pop\n        /* \"#utility.yul\":12250:12252   */\n      0x20\n        /* \"#utility.yul\":12239:12248   */\n      dup6\n        /* \"#utility.yul\":12235:12253   */\n      add\n        /* \"#utility.yul\":12222:12253   */\n      swap5\n      pop\n        /* \"#utility.yul\":12096:12100   */\n      0x20\n        /* \"#utility.yul\":12093:12094   */\n      dup2\n        /* \"#utility.yul\":12089:12101   */\n      add\n        /* \"#utility.yul\":12084:12101   */\n      swap1\n      pop\n        /* \"#utility.yul\":12059:12267   */\n      jump(tag_269)\n    tag_271:\n        /* \"#utility.yul\":12295:12301   */\n      dup7\n        /* \"#utility.yul\":12286:12293   */\n      dup4\n        /* \"#utility.yul\":12283:12302   */\n      lt\n        /* \"#utility.yul\":12280:12459   */\n      iszero\n      tag_272\n      jumpi\n        /* \"#utility.yul\":12353:12362   */\n      dup5\n        /* \"#utility.yul\":12348:12351   */\n      dup10\n        /* \"#utility.yul\":12344:12363   */\n      add\n        /* \"#utility.yul\":12338:12364   */\n      mload\n        /* \"#utility.yul\":12396:12444   */\n      tag_273\n        /* \"#utility.yul\":12438:12442   */\n      0x1f\n        /* \"#utility.yul\":12430:12436   */\n      dup10\n        /* \"#utility.yul\":12426:12443   */\n      and\n        /* \"#utility.yul\":12415:12424   */\n      dup3\n        /* \"#utility.yul\":12396:12444   */\n      tag_122\n      jump\t// in\n    tag_273:\n        /* \"#utility.yul\":12388:12394   */\n      dup4\n        /* \"#utility.yul\":12381:12445   */\n      sstore\n        /* \"#utility.yul\":12303:12459   */\n      pop\n        /* \"#utility.yul\":12280:12459   */\n    tag_272:\n        /* \"#utility.yul\":12505:12506   */\n      0x01\n        /* \"#utility.yul\":12501:12502   */\n      0x02\n        /* \"#utility.yul\":12493:12499   */\n      dup9\n        /* \"#utility.yul\":12489:12503   */\n      mul\n        /* \"#utility.yul\":12485:12507   */\n      add\n        /* \"#utility.yul\":12479:12483   */\n      dup9\n        /* \"#utility.yul\":12472:12508   */\n      sstore\n        /* \"#utility.yul\":11907:12518   */\n      pop\n      pop\n      pop\n        /* \"#utility.yul\":11870:12757   */\n    tag_264:\n      pop\n        /* \"#utility.yul\":11460:12763   */\n      pop\n      pop\n      pop\n        /* \"#utility.yul\":11368:12763   */\n      pop\n      pop\n      jump\t// out\n        /* \"#utility.yul\":12769:13179   */\n    tag_76:\n        /* \"#utility.yul\":12809:12816   */\n      0x00\n        /* \"#utility.yul\":12832:12852   */\n      tag_275\n        /* \"#utility.yul\":12850:12851   */\n      dup3\n        /* \"#utility.yul\":12832:12852   */\n      tag_103\n      jump\t// in\n    tag_275:\n        /* \"#utility.yul\":12827:12852   */\n      swap2\n      pop\n        /* \"#utility.yul\":12866:12886   */\n      tag_276\n        /* \"#utility.yul\":12884:12885   */\n      dup4\n        /* \"#utility.yul\":12866:12886   */\n      tag_103\n      jump\t// in\n    tag_276:\n        /* \"#utility.yul\":12861:12886   */\n      swap3\n      pop\n        /* \"#utility.yul\":12921:12922   */\n      dup3\n        /* \"#utility.yul\":12918:12919   */\n      dup3\n        /* \"#utility.yul\":12914:12923   */\n      mul\n        /* \"#utility.yul\":12943:12973   */\n      tag_277\n        /* \"#utility.yul\":12961:12972   */\n      dup2\n        /* \"#utility.yul\":12943:12973   */\n      tag_103\n      jump\t// in\n    tag_277:\n        /* \"#utility.yul\":12932:12973   */\n      swap2\n      pop\n        /* \"#utility.yul\":13122:13123   */\n      dup3\n        /* \"#utility.yul\":13113:13120   */\n      dup3\n        /* \"#utility.yul\":13109:13124   */\n      div\n        /* \"#utility.yul\":13106:13107   */\n      dup5\n        /* \"#utility.yul\":13103:13125   */\n      eq\n        /* \"#utility.yul\":13083:13084   */\n      dup4\n        /* \"#utility.yul\":13076:13085   */\n      iszero\n        /* \"#utility.yul\":13056:13139   */\n      or\n        /* \"#utility.yul\":13033:13172   */\n      tag_278\n      jumpi\n        /* \"#utility.yul\":13152:13170   */\n      tag_279\n      tag_108\n      jump\t// in\n    tag_279:\n        /* \"#utility.yul\":13033:13172   */\n    tag_278:\n        /* \"#utility.yul\":12817:13179   */\n      pop\n        /* \"#utility.yul\":12769:13179   */\n      swap3\n      swap2\n      pop\n      pop\n      jump\t// out\n\n    auxdata: 0xa26469706673582212201d153434fcb761564cc12465d3a12cbe5dd638f78cc0a2ef02370ccb1eae8eb764736f6c634300081a0033\n}\n",
				"bytecode": {
					"linkReferences": {},
					"object": "6080604052348015600e575f80fd5b50610c3f8061001c5f395ff3fe60806040526004361061007a575f3560e01c80638da5cb5b1161004d5780638da5cb5b14610107578063a035b1fe14610131578063a7cdc8371461015b578063d1f3bf1d146101835761007a565b806302c7e7af1461007e5780634a79d50c146100a857806371924969146100d2578063895afc19146100dc575b5f80fd5b348015610089575f80fd5b506100926101bf565b60405161009f91906104f4565b60405180910390f35b3480156100b3575f80fd5b506100bc6101d2565b6040516100c9919061057d565b60405180910390f35b6100da61025d565b005b3480156100e7575f80fd5b506100f0610355565b6040516100fe9291906105b9565b60405180910390f35b348015610112575f80fd5b5061011b6103fb565b6040516101289190610626565b60405180910390f35b34801561013c575f80fd5b50610145610421565b604051610152919061063f565b60405180910390f35b348015610166575f80fd5b50610181600480360381019061017c91906107bf565b610434565b005b34801561018e575f80fd5b506101a960048036038101906101a4919061084c565b6104be565b6040516101b69190610886565b60405180910390f35b600160169054906101000a900460ff1681565b5f80546101de906108cc565b80601f016020809104026020016040519081016040528092919081815260200182805461020a906108cc565b80156102555780601f1061022c57610100808354040283529160200191610255565b820191905f5260205f20905b81548152906001019060200180831161023857829003601f168201915b505050505081565b61027960015f9054906101000a900461ffff1661ffff166104be565b3410610353575f61029c60015f9054906101000a900461ffff1661ffff166104be565b346102a79190610929565b90505f8111156102f6573373ffffffffffffffffffffffffffffffffffffffff166108fc8290811502906040515f60405180830381858888f193505050501580156102f4573d5f803e3d5ffd5b505b33600160026101000a81548173ffffffffffffffffffffffffffffffffffffffff021916908373ffffffffffffffffffffffffffffffffffffffff16021790555060018060166101000a81548160ff021916908315150217905550505b565b60605f8060015f9054906101000a900461ffff16818054610375906108cc565b80601f01602080910402602001604051908101604052809291908181526020018280546103a1906108cc565b80156103ec5780601f106103c3576101008083540402835291602001916103ec565b820191905f5260205f20905b8154815290600101906020018083116103cf57829003601f168201915b50505050509150915091509091565b600160029054906101000a900473ffffffffffffffffffffffffffffffffffffffff1681565b60015f9054906101000a900461ffff1681565b815f90816104429190610af9565b508060015f6101000a81548161ffff021916908361ffff16021790555033600160026101000a81548173ffffffffffffffffffffffffffffffffffffffff021916908373ffffffffffffffffffffffffffffffffffffffff1602179055505f600160166101000a81548160ff0219169083151502179055505050565b5f670de0b6b3a7640000826104d39190610bc8565b9050919050565b5f8115159050919050565b6104ee816104da565b82525050565b5f6020820190506105075f8301846104e5565b92915050565b5f81519050919050565b5f82825260208201905092915050565b8281835e5f83830152505050565b5f601f19601f8301169050919050565b5f61054f8261050d565b6105598185610517565b9350610569818560208601610527565b61057281610535565b840191505092915050565b5f6020820190508181035f8301526105958184610545565b905092915050565b5f61ffff82169050919050565b6105b38161059d565b82525050565b5f6040820190508181035f8301526105d18185610545565b90506105e060208301846105aa565b9392505050565b5f73ffffffffffffffffffffffffffffffffffffffff82169050919050565b5f610610826105e7565b9050919050565b61062081610606565b82525050565b5f6020820190506106395f830184610617565b92915050565b5f6020820190506106525f8301846105aa565b92915050565b5f604051905090565b5f80fd5b5f80fd5b5f80fd5b5f80fd5b7f4e487b71000000000000000000000000000000000000000000000000000000005f52604160045260245ffd5b6106a782610535565b810181811067ffffffffffffffff821117156106c6576106c5610671565b5b80604052505050565b5f6106d8610658565b90506106e4828261069e565b919050565b5f67ffffffffffffffff82111561070357610702610671565b5b61070c82610535565b9050602081019050919050565b828183375f83830152505050565b5f610739610734846106e9565b6106cf565b9050828152602081018484840111156107555761075461066d565b5b610760848285610719565b509392505050565b5f82601f83011261077c5761077b610669565b5b813561078c848260208601610727565b91505092915050565b61079e8161059d565b81146107a8575f80fd5b50565b5f813590506107b981610795565b92915050565b5f80604083850312156107d5576107d4610661565b5b5f83013567ffffffffffffffff8111156107f2576107f1610665565b5b6107fe85828601610768565b925050602061080f858286016107ab565b9150509250929050565b5f819050919050565b61082b81610819565b8114610835575f80fd5b50565b5f8135905061084681610822565b92915050565b5f6020828403121561086157610860610661565b5b5f61086e84828501610838565b91505092915050565b61088081610819565b82525050565b5f6020820190506108995f830184610877565b92915050565b7f4e487b71000000000000000000000000000000000000000000000000000000005f52602260045260245ffd5b5f60028204905060018216806108e357607f821691505b6020821081036108f6576108f561089f565b5b50919050565b7f4e487b71000000000000000000000000000000000000000000000000000000005f52601160045260245ffd5b5f61093382610819565b915061093e83610819565b9250828203905081811115610956576109556108fc565b5b92915050565b5f819050815f5260205f209050919050565b5f6020601f8301049050919050565b5f82821b905092915050565b5f600883026109b87fffffffffffffffffffffffffffffffffffffffffffffffffffffffffffffffff8261097d565b6109c2868361097d565b95508019841693508086168417925050509392505050565b5f819050919050565b5f6109fd6109f86109f384610819565b6109da565b610819565b9050919050565b5f819050919050565b610a16836109e3565b610a2a610a2282610a04565b848454610989565b825550505050565b5f90565b610a3e610a32565b610a49818484610a0d565b505050565b5b81811015610a6c57610a615f82610a36565b600181019050610a4f565b5050565b601f821115610ab157610a828161095c565b610a8b8461096e565b81016020851015610a9a578190505b610aae610aa68561096e565b830182610a4e565b50505b505050565b5f82821c905092915050565b5f610ad15f1984600802610ab6565b1980831691505092915050565b5f610ae98383610ac2565b9150826002028217905092915050565b610b028261050d565b67ffffffffffffffff811115610b1b57610b1a610671565b5b610b2582546108cc565b610b30828285610a70565b5f60209050601f831160018114610b61575f8415610b4f578287015190505b610b598582610ade565b865550610bc0565b601f198416610b6f8661095c565b5f5b82811015610b9657848901518255600182019150602085019450602081019050610b71565b86831015610bb35784890151610baf601f891682610ac2565b8355505b6001600288020188555050505b505050505050565b5f610bd282610819565b9150610bdd83610819565b9250828202610beb81610819565b91508282048414831517610c0257610c016108fc565b5b509291505056fea26469706673582212201d153434fcb761564cc12465d3a12cbe5dd638f78cc0a2ef02370ccb1eae8eb764736f6c634300081a0033",
					"opcodes": "PUSH1 0x80 PUSH1 0x40 MSTORE CALLVALUE DUP1 ISZERO PUSH1 0xE JUMPI PUSH0 DUP1 REVERT JUMPDEST POP PUSH2 0xC3F DUP1 PUSH2 0x1C PUSH0 CODECOPY PUSH0 RETURN INVALID PUSH1 0x80 PUSH1 0x40 MSTORE PUSH1 0x4 CALLDATASIZE LT PUSH2 0x7A JUMPI PUSH0 CALLDATALOAD PUSH1 0xE0 SHR DUP1 PUSH4 0x8DA5CB5B GT PUSH2 0x4D JUMPI DUP1 PUSH4 0x8DA5CB5B EQ PUSH2 0x107 JUMPI DUP1 PUSH4 0xA035B1FE EQ PUSH2 0x131 JUMPI DUP1 PUSH4 0xA7CDC837 EQ PUSH2 0x15B JUMPI DUP1 PUSH4 0xD1F3BF1D EQ PUSH2 0x183 JUMPI PUSH2 0x7A JUMP JUMPDEST DUP1 PUSH4 0x2C7E7AF EQ PUSH2 0x7E JUMPI DUP1 PUSH4 0x4A79D50C EQ PUSH2 0xA8 JUMPI DUP1 PUSH4 0x71924969 EQ PUSH2 0xD2 JUMPI DUP1 PUSH4 0x895AFC19 EQ PUSH2 0xDC JUMPI JUMPDEST PUSH0 DUP1 REVERT JUMPDEST CALLVALUE DUP1 ISZERO PUSH2 0x89 JUMPI PUSH0 DUP1 REVERT JUMPDEST POP PUSH2 0x92 PUSH2 0x1BF JUMP JUMPDEST PUSH1 0x40 MLOAD PUSH2 0x9F SWAP2 SWAP1 PUSH2 0x4F4 JUMP JUMPDEST PUSH1 0x40 MLOAD DUP1 SWAP2 SUB SWAP1 RETURN JUMPDEST CALLVALUE DUP1 ISZERO PUSH2 0xB3 JUMPI PUSH0 DUP1 REVERT JUMPDEST POP PUSH2 0xBC PUSH2 0x1D2 JUMP JUMPDEST PUSH1 0x40 MLOAD PUSH2 0xC9 SWAP2 SWAP1 PUSH2 0x57D JUMP JUMPDEST PUSH1 0x40 MLOAD DUP1 SWAP2 SUB SWAP1 RETURN JUMPDEST PUSH2 0xDA PUSH2 0x25D JUMP JUMPDEST STOP JUMPDEST CALLVALUE DUP1 ISZERO PUSH2 0xE7 JUMPI PUSH0 DUP1 REVERT JUMPDEST POP PUSH2 0xF0 PUSH2 0x355 JUMP JUMPDEST PUSH1 0x40 MLOAD PUSH2 0xFE SWAP3 SWAP2 SWAP1 PUSH2 0x5B9 JUMP JUMPDEST PUSH1 0x40 MLOAD DUP1 SWAP2 SUB SWAP1 RETURN JUMPDEST CALLVALUE DUP1 ISZERO PUSH2 0x112 JUMPI PUSH0 DUP1 REVERT JUMPDEST POP PUSH2 0x11B PUSH2 0x3FB JUMP JUMPDEST PUSH1 0x40 MLOAD PUSH2 0x128 SWAP2 SWAP1 PUSH2 0x626 JUMP JUMPDEST PUSH1 0x40 MLOAD DUP1 SWAP2 SUB SWAP1 RETURN JUMPDEST CALLVALUE DUP1 ISZERO PUSH2 0x13C JUMPI PUSH0 DUP1 REVERT JUMPDEST POP PUSH2 0x145 PUSH2 0x421 JUMP JUMPDEST PUSH1 0x40 MLOAD PUSH2 0x152 SWAP2 SWAP1 PUSH2 0x63F JUMP JUMPDEST PUSH1 0x40 MLOAD DUP1 SWAP2 SUB SWAP1 RETURN JUMPDEST CALLVALUE DUP1 ISZERO PUSH2 0x166 JUMPI PUSH0 DUP1 REVERT JUMPDEST POP PUSH2 0x181 PUSH1 0x4 DUP1 CALLDATASIZE SUB DUP2 ADD SWAP1 PUSH2 0x17C SWAP2 SWAP1 PUSH2 0x7BF JUMP JUMPDEST PUSH2 0x434 JUMP JUMPDEST STOP JUMPDEST CALLVALUE DUP1 ISZERO PUSH2 0x18E JUMPI PUSH0 DUP1 REVERT JUMPDEST POP PUSH2 0x1A9 PUSH1 0x4 DUP1 CALLDATASIZE SUB DUP2 ADD SWAP1 PUSH2 0x1A4 SWAP2 SWAP1 PUSH2 0x84C JUMP JUMPDEST PUSH2 0x4BE JUMP JUMPDEST PUSH1 0x40 MLOAD PUSH2 0x1B6 SWAP2 SWAP1 PUSH2 0x886 JUMP JUMPDEST PUSH1 0x40 MLOAD DUP1 SWAP2 SUB SWAP1 RETURN JUMPDEST PUSH1 0x1 PUSH1 0x16 SWAP1 SLOAD SWAP1 PUSH2 0x100 EXP SWAP1 DIV PUSH1 0xFF AND DUP2 JUMP JUMPDEST PUSH0 DUP1 SLOAD PUSH2 0x1DE SWAP1 PUSH2 0x8CC JUMP JUMPDEST DUP1 PUSH1 0x1F ADD PUSH1 0x20 DUP1 SWAP2 DIV MUL PUSH1 0x20 ADD PUSH1 0x40 MLOAD SWAP1 DUP2 ADD PUSH1 0x40 MSTORE DUP1 SWAP3 SWAP2 SWAP1 DUP2 DUP2 MSTORE PUSH1 0x20 ADD DUP3 DUP1 SLOAD PUSH2 0x20A SWAP1 PUSH2 0x8CC JUMP JUMPDEST DUP1 ISZERO PUSH2 0x255 JUMPI DUP1 PUSH1 0x1F LT PUSH2 0x22C JUMPI PUSH2 0x100 DUP1 DUP4 SLOAD DIV MUL DUP4 MSTORE SWAP2 PUSH1 0x20 ADD SWAP2 PUSH2 0x255 JUMP JUMPDEST DUP3 ADD SWAP2 SWAP1 PUSH0 MSTORE PUSH1 0x20 PUSH0 KECCAK256 SWAP1 JUMPDEST DUP2 SLOAD DUP2 MSTORE SWAP1 PUSH1 0x1 ADD SWAP1 PUSH1 0x20 ADD DUP1 DUP4 GT PUSH2 0x238 JUMPI DUP3 SWAP1 SUB PUSH1 0x1F AND DUP3 ADD SWAP2 JUMPDEST POP POP POP POP POP DUP2 JUMP JUMPDEST PUSH2 0x279 PUSH1 0x1 PUSH0 SWAP1 SLOAD SWAP1 PUSH2 0x100 EXP SWAP1 DIV PUSH2 0xFFFF AND PUSH2 0xFFFF AND PUSH2 0x4BE JUMP JUMPDEST CALLVALUE LT PUSH2 0x353 JUMPI PUSH0 PUSH2 0x29C PUSH1 0x1 PUSH0 SWAP1 SLOAD SWAP1 PUSH2 0x100 EXP SWAP1 DIV PUSH2 0xFFFF AND PUSH2 0xFFFF AND PUSH2 0x4BE JUMP JUMPDEST CALLVALUE PUSH2 0x2A7 SWAP2 SWAP1 PUSH2 0x929 JUMP JUMPDEST SWAP1 POP PUSH0 DUP2 GT ISZERO PUSH2 0x2F6 JUMPI CALLER PUSH20 0xFFFFFFFFFFFFFFFFFFFFFFFFFFFFFFFFFFFFFFFF AND PUSH2 0x8FC DUP3 SWAP1 DUP2 ISZERO MUL SWAP1 PUSH1 0x40 MLOAD PUSH0 PUSH1 0x40 MLOAD DUP1 DUP4 SUB DUP2 DUP6 DUP9 DUP9 CALL SWAP4 POP POP POP POP ISZERO DUP1 ISZERO PUSH2 0x2F4 JUMPI RETURNDATASIZE PUSH0 DUP1 RETURNDATACOPY RETURNDATASIZE PUSH0 REVERT JUMPDEST POP JUMPDEST CALLER PUSH1 0x1 PUSH1 0x2 PUSH2 0x100 EXP DUP2 SLOAD DUP2 PUSH20 0xFFFFFFFFFFFFFFFFFFFFFFFFFFFFFFFFFFFFFFFF MUL NOT AND SWAP1 DUP4 PUSH20 0xFFFFFFFFFFFFFFFFFFFFFFFFFFFFFFFFFFFFFFFF AND MUL OR SWAP1 SSTORE POP PUSH1 0x1 DUP1 PUSH1 0x16 PUSH2 0x100 EXP DUP2 SLOAD DUP2 PUSH1 0xFF MUL NOT AND SWAP1 DUP4 ISZERO ISZERO MUL OR SWAP1 SSTORE POP POP JUMPDEST JUMP JUMPDEST PUSH1 0x60 PUSH0 DUP1 PUSH1 0x1 PUSH0 SWAP1 SLOAD SWAP1 PUSH2 0x100 EXP SWAP1 DIV PUSH2 0xFFFF AND DUP2 DUP1 SLOAD PUSH2 0x375 SWAP1 PUSH2 0x8CC JUMP JUMPDEST DUP1 PUSH1 0x1F ADD PUSH1 0x20 DUP1 SWAP2 DIV MUL PUSH1 0x20 ADD PUSH1 0x40 MLOAD SWAP1 DUP2 ADD PUSH1 0x40 MSTORE DUP1 SWAP3 SWAP2 SWAP1 DUP2 DUP2 MSTORE PUSH1 0x20 ADD DUP3 DUP1 SLOAD PUSH2 0x3A1 SWAP1 PUSH2 0x8CC JUMP JUMPDEST DUP1 ISZERO PUSH2 0x3EC JUMPI DUP1 PUSH1 0x1F LT PUSH2 0x3C3 JUMPI PUSH2 0x100 DUP1 DUP4 SLOAD DIV MUL DUP4 MSTORE SWAP2 PUSH1 0x20 ADD SWAP2 PUSH2 0x3EC JUMP JUMPDEST DUP3 ADD SWAP2 SWAP1 PUSH0 MSTORE PUSH1 0x20 PUSH0 KECCAK256 SWAP1 JUMPDEST DUP2 SLOAD DUP2 MSTORE SWAP1 PUSH1 0x1 ADD SWAP1 PUSH1 0x20 ADD DUP1 DUP4 GT PUSH2 0x3CF JUMPI DUP3 SWAP1 SUB PUSH1 0x1F AND DUP3 ADD SWAP2 JUMPDEST POP POP POP POP POP SWAP2 POP SWAP2 POP SWAP2 POP SWAP1 SWAP2 JUMP JUMPDEST PUSH1 0x1 PUSH1 0x2 SWAP1 SLOAD SWAP1 PUSH2 0x100 EXP SWAP1 DIV PUSH20 0xFFFFFFFFFFFFFFFFFFFFFFFFFFFFFFFFFFFFFFFF AND DUP2 JUMP JUMPDEST PUSH1 0x1 PUSH0 SWAP1 SLOAD SWAP1 PUSH2 0x100 EXP SWAP1 DIV PUSH2 0xFFFF AND DUP2 JUMP JUMPDEST DUP2 PUSH0 SWAP1 DUP2 PUSH2 0x442 SWAP2 SWAP1 PUSH2 0xAF9 JUMP JUMPDEST POP DUP1 PUSH1 0x1 PUSH0 PUSH2 0x100 EXP DUP2 SLOAD DUP2 PUSH2 0xFFFF MUL NOT AND SWAP1 DUP4 PUSH2 0xFFFF AND MUL OR SWAP1 SSTORE POP CALLER PUSH1 0x1 PUSH1 0x2 PUSH2 0x100 EXP DUP2 SLOAD DUP2 PUSH20 0xFFFFFFFFFFFFFFFFFFFFFFFFFFFFFFFFFFFFFFFF MUL NOT AND SWAP1 DUP4 PUSH20 0xFFFFFFFFFFFFFFFFFFFFFFFFFFFFFFFFFFFFFFFF AND MUL OR SWAP1 SSTORE POP PUSH0 PUSH1 0x1 PUSH1 0x16 PUSH2 0x100 EXP DUP2 SLOAD DUP2 PUSH1 0xFF MUL NOT AND SWAP1 DUP4 ISZERO ISZERO MUL OR SWAP1 SSTORE POP POP POP JUMP JUMPDEST PUSH0 PUSH8 0xDE0B6B3A7640000 DUP3 PUSH2 0x4D3 SWAP2 SWAP1 PUSH2 0xBC8 JUMP JUMPDEST SWAP1 POP SWAP2 SWAP1 POP JUMP JUMPDEST PUSH0 DUP2 ISZERO ISZERO SWAP1 POP SWAP2 SWAP1 POP JUMP JUMPDEST PUSH2 0x4EE DUP2 PUSH2 0x4DA JUMP JUMPDEST DUP3 MSTORE POP POP JUMP JUMPDEST PUSH0 PUSH1 0x20 DUP3 ADD SWAP1 POP PUSH2 0x507 PUSH0 DUP4 ADD DUP5 PUSH2 0x4E5 JUMP JUMPDEST SWAP3 SWAP2 POP POP JUMP JUMPDEST PUSH0 DUP2 MLOAD SWAP1 POP SWAP2 SWAP1 POP JUMP JUMPDEST PUSH0 DUP3 DUP3 MSTORE PUSH1 0x20 DUP3 ADD SWAP1 POP SWAP3 SWAP2 POP POP JUMP JUMPDEST DUP3 DUP2 DUP4 MCOPY PUSH0 DUP4 DUP4 ADD MSTORE POP POP POP JUMP JUMPDEST PUSH0 PUSH1 0x1F NOT PUSH1 0x1F DUP4 ADD AND SWAP1 POP SWAP2 SWAP1 POP JUMP JUMPDEST PUSH0 PUSH2 0x54F DUP3 PUSH2 0x50D JUMP JUMPDEST PUSH2 0x559 DUP2 DUP6 PUSH2 0x517 JUMP JUMPDEST SWAP4 POP PUSH2 0x569 DUP2 DUP6 PUSH1 0x20 DUP7 ADD PUSH2 0x527 JUMP JUMPDEST PUSH2 0x572 DUP2 PUSH2 0x535 JUMP JUMPDEST DUP5 ADD SWAP2 POP POP SWAP3 SWAP2 POP POP JUMP JUMPDEST PUSH0 PUSH1 0x20 DUP3 ADD SWAP1 POP DUP2 DUP2 SUB PUSH0 DUP4 ADD MSTORE PUSH2 0x595 DUP2 DUP5 PUSH2 0x545 JUMP JUMPDEST SWAP1 POP SWAP3 SWAP2 POP POP JUMP JUMPDEST PUSH0 PUSH2 0xFFFF DUP3 AND SWAP1 POP SWAP2 SWAP1 POP JUMP JUMPDEST PUSH2 0x5B3 DUP2 PUSH2 0x59D JUMP JUMPDEST DUP3 MSTORE POP POP JUMP JUMPDEST PUSH0 PUSH1 0x40 DUP3 ADD SWAP1 POP DUP2 DUP2 SUB PUSH0 DUP4 ADD MSTORE PUSH2 0x5D1 DUP2 DUP6 PUSH2 0x545 JUMP JUMPDEST SWAP1 POP PUSH2 0x5E0 PUSH1 0x20 DUP4 ADD DUP5 PUSH2 0x5AA JUMP JUMPDEST SWAP4 SWAP3 POP POP POP JUMP JUMPDEST PUSH0 PUSH20 0xFFFFFFFFFFFFFFFFFFFFFFFFFFFFFFFFFFFFFFFF DUP3 AND SWAP1 POP SWAP2 SWAP1 POP JUMP JUMPDEST PUSH0 PUSH2 0x610 DUP3 PUSH2 0x5E7 JUMP JUMPDEST SWAP1 POP SWAP2 SWAP1 POP JUMP JUMPDEST PUSH2 0x620 DUP2 PUSH2 0x606 JUMP JUMPDEST DUP3 MSTORE POP POP JUMP JUMPDEST PUSH0 PUSH1 0x20 DUP3 ADD SWAP1 POP PUSH2 0x639 PUSH0 DUP4 ADD DUP5 PUSH2 0x617 JUMP JUMPDEST SWAP3 SWAP2 POP POP JUMP JUMPDEST PUSH0 PUSH1 0x20 DUP3 ADD SWAP1 POP PUSH2 0x652 PUSH0 DUP4 ADD DUP5 PUSH2 0x5AA JUMP JUMPDEST SWAP3 SWAP2 POP POP JUMP JUMPDEST PUSH0 PUSH1 0x40 MLOAD SWAP1 POP SWAP1 JUMP JUMPDEST PUSH0 DUP1 REVERT JUMPDEST PUSH0 DUP1 REVERT JUMPDEST PUSH0 DUP1 REVERT JUMPDEST PUSH0 DUP1 REVERT JUMPDEST PUSH32 0x4E487B7100000000000000000000000000000000000000000000000000000000 PUSH0 MSTORE PUSH1 0x41 PUSH1 0x4 MSTORE PUSH1 0x24 PUSH0 REVERT JUMPDEST PUSH2 0x6A7 DUP3 PUSH2 0x535 JUMP JUMPDEST DUP2 ADD DUP2 DUP2 LT PUSH8 0xFFFFFFFFFFFFFFFF DUP3 GT OR ISZERO PUSH2 0x6C6 JUMPI PUSH2 0x6C5 PUSH2 0x671 JUMP JUMPDEST JUMPDEST DUP1 PUSH1 0x40 MSTORE POP POP POP JUMP JUMPDEST PUSH0 PUSH2 0x6D8 PUSH2 0x658 JUMP JUMPDEST SWAP1 POP PUSH2 0x6E4 DUP3 DUP3 PUSH2 0x69E JUMP JUMPDEST SWAP2 SWAP1 POP JUMP JUMPDEST PUSH0 PUSH8 0xFFFFFFFFFFFFFFFF DUP3 GT ISZERO PUSH2 0x703 JUMPI PUSH2 0x702 PUSH2 0x671 JUMP JUMPDEST JUMPDEST PUSH2 0x70C DUP3 PUSH2 0x535 JUMP JUMPDEST SWAP1 POP PUSH1 0x20 DUP2 ADD SWAP1 POP SWAP2 SWAP1 POP JUMP JUMPDEST DUP3 DUP2 DUP4 CALLDATACOPY PUSH0 DUP4 DUP4 ADD MSTORE POP POP POP JUMP JUMPDEST PUSH0 PUSH2 0x739 PUSH2 0x734 DUP5 PUSH2 0x6E9 JUMP JUMPDEST PUSH2 0x6CF JUMP JUMPDEST SWAP1 POP DUP3 DUP2 MSTORE PUSH1 0x20 DUP2 ADD DUP5 DUP5 DUP5 ADD GT ISZERO PUSH2 0x755 JUMPI PUSH2 0x754 PUSH2 0x66D JUMP JUMPDEST JUMPDEST PUSH2 0x760 DUP5 DUP3 DUP6 PUSH2 0x719 JUMP JUMPDEST POP SWAP4 SWAP3 POP POP POP JUMP JUMPDEST PUSH0 DUP3 PUSH1 0x1F DUP4 ADD SLT PUSH2 0x77C JUMPI PUSH2 0x77B PUSH2 0x669 JUMP JUMPDEST JUMPDEST DUP2 CALLDATALOAD PUSH2 0x78C DUP5 DUP3 PUSH1 0x20 DUP7 ADD PUSH2 0x727 JUMP JUMPDEST SWAP2 POP POP SWAP3 SWAP2 POP POP JUMP JUMPDEST PUSH2 0x79E DUP2 PUSH2 0x59D JUMP JUMPDEST DUP2 EQ PUSH2 0x7A8 JUMPI PUSH0 DUP1 REVERT JUMPDEST POP JUMP JUMPDEST PUSH0 DUP2 CALLDATALOAD SWAP1 POP PUSH2 0x7B9 DUP2 PUSH2 0x795 JUMP JUMPDEST SWAP3 SWAP2 POP POP JUMP JUMPDEST PUSH0 DUP1 PUSH1 0x40 DUP4 DUP6 SUB SLT ISZERO PUSH2 0x7D5 JUMPI PUSH2 0x7D4 PUSH2 0x661 JUMP JUMPDEST JUMPDEST PUSH0 DUP4 ADD CALLDATALOAD PUSH8 0xFFFFFFFFFFFFFFFF DUP2 GT ISZERO PUSH2 0x7F2 JUMPI PUSH2 0x7F1 PUSH2 0x665 JUMP JUMPDEST JUMPDEST PUSH2 0x7FE DUP6 DUP3 DUP7 ADD PUSH2 0x768 JUMP JUMPDEST SWAP3 POP POP PUSH1 0x20 PUSH2 0x80F DUP6 DUP3 DUP7 ADD PUSH2 0x7AB JUMP JUMPDEST SWAP2 POP POP SWAP3 POP SWAP3 SWAP1 POP JUMP JUMPDEST PUSH0 DUP2 SWAP1 POP SWAP2 SWAP1 POP JUMP JUMPDEST PUSH2 0x82B DUP2 PUSH2 0x819 JUMP JUMPDEST DUP2 EQ PUSH2 0x835 JUMPI PUSH0 DUP1 REVERT JUMPDEST POP JUMP JUMPDEST PUSH0 DUP2 CALLDATALOAD SWAP1 POP PUSH2 0x846 DUP2 PUSH2 0x822 JUMP JUMPDEST SWAP3 SWAP2 POP POP JUMP JUMPDEST PUSH0 PUSH1 0x20 DUP3 DUP5 SUB SLT ISZERO PUSH2 0x861 JUMPI PUSH2 0x860 PUSH2 0x661 JUMP JUMPDEST JUMPDEST PUSH0 PUSH2 0x86E DUP5 DUP3 DUP6 ADD PUSH2 0x838 JUMP JUMPDEST SWAP2 POP POP SWAP3 SWAP2 POP POP JUMP JUMPDEST PUSH2 0x880 DUP2 PUSH2 0x819 JUMP JUMPDEST DUP3 MSTORE POP POP JUMP JUMPDEST PUSH0 PUSH1 0x20 DUP3 ADD SWAP1 POP PUSH2 0x899 PUSH0 DUP4 ADD DUP5 PUSH2 0x877 JUMP JUMPDEST SWAP3 SWAP2 POP POP JUMP JUMPDEST PUSH32 0x4E487B7100000000000000000000000000000000000000000000000000000000 PUSH0 MSTORE PUSH1 0x22 PUSH1 0x4 MSTORE PUSH1 0x24 PUSH0 REVERT JUMPDEST PUSH0 PUSH1 0x2 DUP3 DIV SWAP1 POP PUSH1 0x1 DUP3 AND DUP1 PUSH2 0x8E3 JUMPI PUSH1 0x7F DUP3 AND SWAP2 POP JUMPDEST PUSH1 0x20 DUP3 LT DUP2 SUB PUSH2 0x8F6 JUMPI PUSH2 0x8F5 PUSH2 0x89F JUMP JUMPDEST JUMPDEST POP SWAP2 SWAP1 POP JUMP JUMPDEST PUSH32 0x4E487B7100000000000000000000000000000000000000000000000000000000 PUSH0 MSTORE PUSH1 0x11 PUSH1 0x4 MSTORE PUSH1 0x24 PUSH0 REVERT JUMPDEST PUSH0 PUSH2 0x933 DUP3 PUSH2 0x819 JUMP JUMPDEST SWAP2 POP PUSH2 0x93E DUP4 PUSH2 0x819 JUMP JUMPDEST SWAP3 POP DUP3 DUP3 SUB SWAP1 POP DUP2 DUP2 GT ISZERO PUSH2 0x956 JUMPI PUSH2 0x955 PUSH2 0x8FC JUMP JUMPDEST JUMPDEST SWAP3 SWAP2 POP POP JUMP JUMPDEST PUSH0 DUP2 SWAP1 POP DUP2 PUSH0 MSTORE PUSH1 0x20 PUSH0 KECCAK256 SWAP1 POP SWAP2 SWAP1 POP JUMP JUMPDEST PUSH0 PUSH1 0x20 PUSH1 0x1F DUP4 ADD DIV SWAP1 POP SWAP2 SWAP1 POP JUMP JUMPDEST PUSH0 DUP3 DUP3 SHL SWAP1 POP SWAP3 SWAP2 POP POP JUMP JUMPDEST PUSH0 PUSH1 0x8 DUP4 MUL PUSH2 0x9B8 PUSH32 0xFFFFFFFFFFFFFFFFFFFFFFFFFFFFFFFFFFFFFFFFFFFFFFFFFFFFFFFFFFFFFFFF DUP3 PUSH2 0x97D JUMP JUMPDEST PUSH2 0x9C2 DUP7 DUP4 PUSH2 0x97D JUMP JUMPDEST SWAP6 POP DUP1 NOT DUP5 AND SWAP4 POP DUP1 DUP7 AND DUP5 OR SWAP3 POP POP POP SWAP4 SWAP3 POP POP POP JUMP JUMPDEST PUSH0 DUP2 SWAP1 POP SWAP2 SWAP1 POP JUMP JUMPDEST PUSH0 PUSH2 0x9FD PUSH2 0x9F8 PUSH2 0x9F3 DUP5 PUSH2 0x819 JUMP JUMPDEST PUSH2 0x9DA JUMP JUMPDEST PUSH2 0x819 JUMP JUMPDEST SWAP1 POP SWAP2 SWAP1 POP JUMP JUMPDEST PUSH0 DUP2 SWAP1 POP SWAP2 SWAP1 POP JUMP JUMPDEST PUSH2 0xA16 DUP4 PUSH2 0x9E3 JUMP JUMPDEST PUSH2 0xA2A PUSH2 0xA22 DUP3 PUSH2 0xA04 JUMP JUMPDEST DUP5 DUP5 SLOAD PUSH2 0x989 JUMP JUMPDEST DUP3 SSTORE POP POP POP POP JUMP JUMPDEST PUSH0 SWAP1 JUMP JUMPDEST PUSH2 0xA3E PUSH2 0xA32 JUMP JUMPDEST PUSH2 0xA49 DUP2 DUP5 DUP5 PUSH2 0xA0D JUMP JUMPDEST POP POP POP JUMP JUMPDEST JUMPDEST DUP2 DUP2 LT ISZERO PUSH2 0xA6C JUMPI PUSH2 0xA61 PUSH0 DUP3 PUSH2 0xA36 JUMP JUMPDEST PUSH1 0x1 DUP2 ADD SWAP1 POP PUSH2 0xA4F JUMP JUMPDEST POP POP JUMP JUMPDEST PUSH1 0x1F DUP3 GT ISZERO PUSH2 0xAB1 JUMPI PUSH2 0xA82 DUP2 PUSH2 0x95C JUMP JUMPDEST PUSH2 0xA8B DUP5 PUSH2 0x96E JUMP JUMPDEST DUP2 ADD PUSH1 0x20 DUP6 LT ISZERO PUSH2 0xA9A JUMPI DUP2 SWAP1 POP JUMPDEST PUSH2 0xAAE PUSH2 0xAA6 DUP6 PUSH2 0x96E JUMP JUMPDEST DUP4 ADD DUP3 PUSH2 0xA4E JUMP JUMPDEST POP POP JUMPDEST POP POP POP JUMP JUMPDEST PUSH0 DUP3 DUP3 SHR SWAP1 POP SWAP3 SWAP2 POP POP JUMP JUMPDEST PUSH0 PUSH2 0xAD1 PUSH0 NOT DUP5 PUSH1 0x8 MUL PUSH2 0xAB6 JUMP JUMPDEST NOT DUP1 DUP4 AND SWAP2 POP POP SWAP3 SWAP2 POP POP JUMP JUMPDEST PUSH0 PUSH2 0xAE9 DUP4 DUP4 PUSH2 0xAC2 JUMP JUMPDEST SWAP2 POP DUP3 PUSH1 0x2 MUL DUP3 OR SWAP1 POP SWAP3 SWAP2 POP POP JUMP JUMPDEST PUSH2 0xB02 DUP3 PUSH2 0x50D JUMP JUMPDEST PUSH8 0xFFFFFFFFFFFFFFFF DUP2 GT ISZERO PUSH2 0xB1B JUMPI PUSH2 0xB1A PUSH2 0x671 JUMP JUMPDEST JUMPDEST PUSH2 0xB25 DUP3 SLOAD PUSH2 0x8CC JUMP JUMPDEST PUSH2 0xB30 DUP3 DUP3 DUP6 PUSH2 0xA70 JUMP JUMPDEST PUSH0 PUSH1 0x20 SWAP1 POP PUSH1 0x1F DUP4 GT PUSH1 0x1 DUP2 EQ PUSH2 0xB61 JUMPI PUSH0 DUP5 ISZERO PUSH2 0xB4F JUMPI DUP3 DUP8 ADD MLOAD SWAP1 POP JUMPDEST PUSH2 0xB59 DUP6 DUP3 PUSH2 0xADE JUMP JUMPDEST DUP7 SSTORE POP PUSH2 0xBC0 JUMP JUMPDEST PUSH1 0x1F NOT DUP5 AND PUSH2 0xB6F DUP7 PUSH2 0x95C JUMP JUMPDEST PUSH0 JUMPDEST DUP3 DUP2 LT ISZERO PUSH2 0xB96 JUMPI DUP5 DUP10 ADD MLOAD DUP3 SSTORE PUSH1 0x1 DUP3 ADD SWAP2 POP PUSH1 0x20 DUP6 ADD SWAP5 POP PUSH1 0x20 DUP2 ADD SWAP1 POP PUSH2 0xB71 JUMP JUMPDEST DUP7 DUP4 LT ISZERO PUSH2 0xBB3 JUMPI DUP5 DUP10 ADD MLOAD PUSH2 0xBAF PUSH1 0x1F DUP10 AND DUP3 PUSH2 0xAC2 JUMP JUMPDEST DUP4 SSTORE POP JUMPDEST PUSH1 0x1 PUSH1 0x2 DUP9 MUL ADD DUP9 SSTORE POP POP POP JUMPDEST POP POP POP POP POP POP JUMP JUMPDEST PUSH0 PUSH2 0xBD2 DUP3 PUSH2 0x819 JUMP JUMPDEST SWAP2 POP PUSH2 0xBDD DUP4 PUSH2 0x819 JUMP JUMPDEST SWAP3 POP DUP3 DUP3 MUL PUSH2 0xBEB DUP2 PUSH2 0x819 JUMP JUMPDEST SWAP2 POP DUP3 DUP3 DIV DUP5 EQ DUP4 ISZERO OR PUSH2 0xC02 JUMPI PUSH2 0xC01 PUSH2 0x8FC JUMP JUMPDEST JUMPDEST POP SWAP3 SWAP2 POP POP JUMP INVALID LOG2 PUSH5 0x6970667358 0x22 SLT KECCAK256 SAR ISZERO CALLVALUE CALLVALUE 0xFC 0xB7 PUSH2 0x564C 0xC1 0x24 PUSH6 0xD3A12CBE5DD6 CODESIZE 0xF7 DUP13 0xC0 LOG2 0xEF MUL CALLDATACOPY 0xC 0xCB 0x1E 0xAE DUP15 0xB7 PUSH5 0x736F6C6343 STOP ADDMOD BYTE STOP CALLER "
				},
				"gasEstimates": {
					"creation": {
						"codeDepositCost": "627000",
						"executionCost": "655",
						"totalCost": "627655"
					},
					"external": {
						"buybook()": "infinite",
						"ethTowei(uint256)": "infinite",
						"getbookdetails()": "infinite",
						"owner()": "2559",
						"price()": "2488",
						"setbookdetails(string,uint16)": "infinite",
						"sold()": "2518",
						"title()": "infinite"
					}
				},
				"methodIdentifiers": {
					"buybook()": "71924969",
					"ethTowei(uint256)": "d1f3bf1d",
					"getbookdetails()": "895afc19",
					"owner()": "8da5cb5b",
					"price()": "a035b1fe",
					"setbookdetails(string,uint16)": "a7cdc837",
					"sold()": "02c7e7af",
					"title()": "4a79d50c"
				}
			},
			"storageLayout": {
				"storage": [
					{
						"astId": 3,
						"contract": "Mybook.sol:Book",
						"label": "title",
						"offset": 0,
						"slot": "0",
						"type": "t_string_storage"
					},
					{
						"astId": 5,
						"contract": "Mybook.sol:Book",
						"label": "price",
						"offset": 0,
						"slot": "1",
						"type": "t_uint16"
					},
					{
						"astId": 7,
						"contract": "Mybook.sol:Book",
						"label": "owner",
						"offset": 2,
						"slot": "1",
						"type": "t_address"
					},
					{
						"astId": 9,
						"contract": "Mybook.sol:Book",
						"label": "sold",
						"offset": 22,
						"slot": "1",
						"type": "t_bool"
					}
				],
				"types": {
					"t_address": {
						"encoding": "inplace",
						"label": "address",
						"numberOfBytes": "20"
					},
					"t_bool": {
						"encoding": "inplace",
						"label": "bool",
						"numberOfBytes": "1"
					},
					"t_string_storage": {
						"encoding": "bytes",
						"label": "string",
						"numberOfBytes": "32"
					},
					"t_uint16": {
						"encoding": "inplace",
						"label": "uint16",
						"numberOfBytes": "2"
					}
				}
			},
			"userdoc": {
				"kind": "user",
				"methods": {},
				"version": 1
			}
		}
	}
}